:0200000460009A
:100000004643464200000156000000000101020084
:1000100000000000000000000000000000000000E0
:1000200000000000000000000000000000000000D0
:1000300000000000000000000000000000000000C0
:1000400000000000010403000000000000000000A8
:100050000000200000000000000000000000000080
:100060000000000000000000000000000000000090
:100070000000000000000000000000000000000080
:10008000EB04180A063204260000000000000000FD
:10009000050404240000000000000000000000002F
:1000A0000000000000000000000000000000000050
:1000B0000604000000000000000000000000000036
:1000C0000000000000000000000000000000000030
:1000D00020041808000000000000000000000000DC
:1000E0000000000000000000000000000000000010
:1000F0000000000000000000000000000000000000
:1001000000000000000000000000000000000000EF
:100110000204180804200000000000000000000095
:1001200000000000000000000000000000000000CF
:10013000600400000000000000000000000000005B
:1001400000000000000000000000000000000000AF
:10015000000000000000000000000000000000009F
:10016000000000000000000000000000000000008F
:10017000000000000000000000000000000000007F
:10018000000000000000000000000000000000006F
:10019000000000000000000000000000000000005F
:1001A000000000000000000000000000000000004F
:1001B000000000000000000000000000000000003F
:1001C000000100000010000001000000000000001D
:1001D000000000000000000000000000000000001F
:1001E000000000000000000000000000000000000F
:1001F00000000000000000000000000000000000FF
:10020000D4D4D4D4D4D4D4D4D4D4D4D4D4D4D4D4AE
:10100000D10020400020006000000000000000002F
:1010100020100060001000600000000000000000D0
:1010200000000060D05D030000000000EFBEADDEF8
:10103000124880F3088812481249016000F036F81F
:10104000114812490022814201D004C0FBE7104838
:101050001049114A814202D008CA08C0FAE70F4875
:101060004FF47001026842EA01020260BFF34F8F41
:10107000BFF36F8F00F014F800DE00000040002086
:1010800008ED00E0004000200050002074810020A6
:10109000B842002058440020D85D036088ED00E08D
:1010A00040F6A77CC0F2000C6047D4D41C4840F244
:1010B000924188420CBF1B4A1B4A1C4B5360136869
:1010C00023F0800313601A481A4901BF1A480A0C1A
:1010D0008264C1F30F014164016C41F004010164B9
:1010E0001648174A824205D01649814202D008CAE2
:1010F00008C0FAE71448154A824205D014498142D3
:1011000002D008CA08C0FAE71248134A824205D042
:101110001249814202D008CA08C0FAE770470000AD
:10112000240400000080034000C00B4020C528D9E3
:1011300000C00A40AAAAFAFF00400E4000000000CA
:10114000B8220060A08D0000004000200020006058
:10115000B84200200000202060B0006078AD22205E
:10116000D4D4D4D4D4D4D4D4D4D4D4D4D4D4D4D43F
:10117000D4D4D4D4D4D4D4D4D4D4D4D4D4D4D4D42F
:10118000D4D4D4D4D4D4D4D4D4D4D4D4D4D4D4D41F
:10119000D4D4D4D4D4D4D4D4D4D4D4D4D4D4D4D40F
:1020000000400020311000605D2A0000858D000036
:102010005D2A00005D2A00005D2A0000000000002B
:102020000000000000000000000000005D2A000029
:102030005D2A0000000000005D2A00001D13000062
:102040005D2A00005D2A00005D2A00005D2A000074
:102050005D2A00005D2A00005D2A00005D2A000064
:102060005D2A00005D2A00005D2A00005D2A000054
:102070005D2A00005D2A00005D2A00005D2A000044
:102080005D2A0000000000000000000000000000C9
:102090005D2A00005D2A00005D2A00005D2A000024
:1020A0005D2A00005D2A00005D2A00005D2A000014
:1020B0005D2A00005D2A00005D2A00005D2A000004
:1020C0005D2A00005D2A00005D2A00005D2A0000F4
:1020D0005D2A00005D2A00005D2A00005D2A0000E4
:1020E0005D2A00005D2A00005D2A00005D2A0000D4
:1020F0005D2A00005D2A00005D2A00005D2A0000C4
:102100005D2A00005D2A00005D2A00005D2A0000B3
:10211000000000005D2A0000000000005D2A0000B1
:102120005D2A00005D2A00005D2A00005D2A000093
:102130005D2A00005D2A0000000000005D2A00000A
:102140005D2A00005D2A00005D2A00005D2A000073
:102150005D2A00005D2A0000000000000000000071
:102160005D2A00005D2A00005D2A00005D2A000053
:102170005D2A00005D2A00005D2A00005D2A000043
:102180005D2A00005D2A00005D2A00005D2A000033
:102190005D2A00005D2A00005D2A00005D2A000023
:1021A0005D2A00005D2A00005D2A00005D2A000013
:1021B0005D2A00005D2A00005D2A00005D2A000003
:1021C0005D2A00005D2A00005D2A0000000000007A
:1021D0005D2A0000150800005D2A00005D2A00004D
:1021E0005D2A00005D2A00005D2A00005D2A0000D3
:1021F0005D2A00005D2A00005D2A00005D2A0000C3
:102200005D2A0000ED2800005D2A00005D2A000024
:102210005D2A00005D2A00005D2A00005D2A0000A2
:102220005D2A00005D2A00005D2A00005D2A000092
:102230005D2A00005D2A00005D2A00000000000009
:10224000000000005D2A00005D2A00005D2A0000F9
:102250005D2A00005D2A00005D2A00005D2A000062
:102260005D2A00005D2A00005D2A00005D2A000052
:102270005D2A00005D2A00005D2A00005D2A000042
:102280005D2A00005D2A00005D2A00005D2A000032
:102290005D2A00005D2A00005D2A00005D2A000022
:1022A0005D2A00005D2A00005D2A00000000000099
:0822B0005D2A00005D2A000018
:1022B800F0B503AF2DE9000FABB00D46044601F1B0
:1022C8003400383105F1540202F019FAD5F8C80083
:1022D80004F07DFCD5F82801016841F00101016096
:1022E800D5F82811086820F0020008600020C1F81D
:1022F8000801C1F81801C1F828011491C1F8380182
:10230800D5F8C080D8F8000020F00100C8F8000017
:10231800D8F8000040F40040C8F80000D8F80000E1
:1023280000040CD5D8F80000000444BFD8F8000019
:102338005FEA004003D5D8F800000004EED43F203F
:10234800C8F80800D8F8000020F00100C8F800001C
:10235800D5F8C490D9F8000020F00100C9F80000B1
:10236800D9F8000040F40040C9F80000D9F800008E
:1023780000040CD5D9F80000000444BFD9F80000C7
:102388005FEA004003D5D9F800000004EED43F20EE
:10239800C9F80800D9F8000020F00100C9F80000C9
:1023A800D5F85C0104F0C1FBD5F800A0CDE9121006
:1023B80040F26341DAF8480040F00100CAF84800EA
:1023C800DAF844000843CAF84400DAF84400012166
:1023D80061F38300CAF84400DAF8440020F0800072
:1023E800CAF84400DAF8480040F02000CAF848006B
:1023F800DAF8440040F44040CAF84400DAF84400EF
:1024080040F44470CAF84400DAF8480040F080000C
:10241800CAF84800DAF8580000070CD0DAF8580073
:1024280000071CBFDAF858005FEA007003D0DAF83A
:1024380058000007EED1DAF8480040F2634140F056
:102448002000CAF84800DAF8440020F44040CAF8EE
:102458004400DAF8440020F4447000F58870CAF8A3
:102468004400D5F804B0DBF8480040F00100CBF890
:102478004800DBF844000843CBF84400DBF844008C
:10248800012161F38300CBF84400DBF8440020F01D
:102498008000CBF84400DBF8480040F02000CBF87F
:1024A8004800DBF8440040F44040CBF84400DBF837
:1024B800440040F44470CBF84400DBF8480040F096
:1024C8008000CBF84800DBF8580000070CD0DBF898
:1024D800580000071CBFDBF858005FEA007003D003
:1024E800DBF858000007EED1DBF8480040F0200088
:1024F800CBF84800DBF8440020F44040CBF8440017
:10250800DBF8440020F4447000F58870CBF84400F0
:10251800D5F87C01119004F0B4FA064604F0B3FA39
:102528001199034615A8324604F0AFFAD5F8681198
:1025380027A84FF4805204F0A2F9D5F89C00119016
:10254800D5F8A4001090D5F8A8000F90D5F8AC00E5
:102558000E901498D5E91712C4E90000C4E90200E6
:10256800D5F884011490D5F890010D90D5F898010C
:10257800089004F58E7004F0F4FAD5F83001D5E926
:1025880042CE00F59071216700F1C001E16600F1CB
:102598006001A166D5E90D12D5F81C316066CDE958
:1025A8000B210F22696D0A91D5F880100491D5F896
:1025B80084100291D5F888100191D5F8E01009919E
:1025C800D5F8E8100791D5F8FC100691D5F8141144
:1025D8000591D5F8041103914FF47041A0F88C11BE
:1025E800A0F88E212066D5F8340100F59076C4F85D
:1025F800846000F1C006C4F88060A0F88C11C4E9BA
:102608001D00A0F88E216030E067D5F8380100F58C
:102618009076C4F8986000F1C006C4F89460A0F8F9
:102628008C11C4E92200A0F88E216030C4F8900013
:10263800D5F83C0100F59075C4F8AC5000F1C00520
:10264800C4F8A850A0F88C1100F16001C4F8A410D7
:10265800C4E92700A0F88E214822DDE91210C4E958
:10266800C71004F1B801089820631198A061109868
:10267800E0610F9820620E9860621498A0620D982D
:10268800E0620498C4F8B0000298C4F8B400019855
:10269800C4E9048981E8010C15A90398C4E916C3A3
:1026A800C4E914E00598E0640698A064079860649B
:1026B800099820640A98E0630B98A0630C986063FB
:1026C80004F1C40008F0B4FC27AB04F5867C0FCBFA
:1026D8008CE80F002BB0BDE8000FF0BD7047D4D4D4
:1026E8000A46017880B56F4682B0DFE801F003152D
:1026F80027323D4F0130019040F2040040F20001C2
:10270800C2F22000C2F220010090104601AB032261
:1027180007F0FFFD02B080BD0130019040F21C00BF
:1027280040F21401C2F22000C2F2200100901046CB
:1027380001AB052207F0EDFD02B080BD013040F28B
:102748002C01019040F21C00C2F22000C2F22001CC
:1027580014E00130019040F21C0040F23301C2F253
:102768002000C2F2200109E00130019040F21C0073
:1027780040F23A01C2F22000C2F220010090104655
:1027880001AB072207F0C5FD02B080BD0130019002
:1027980040F24C0040F24101C2F2200001AB00902F
:1027A8001046C2F220010B2207F0B3FD02B080BD33
:1027B800F0B503AF2DE9000B804601F040FA01F0B7
:1027C80026FA10E02069C8F80000D4E9001009686A
:1027D80088470646207B05F00100894606F0ABFED7
:1027E80071684846884706F09BFEBFF35F8F054631
:1027F800D8F80040ECB1A66801F0E8F9801B002188
:10280800B0F1FF3FC8BF012100282173DAD505F0D8
:10281800010006F090FE01F012FA304601F0EEF9E0
:1028280001F0D4F9801BB0F1FF3FDCDCBDE8000B00
:10283800F0BD284606F07FFEBDE8000BBDE8F0407D
:1028480001F0FDB9F0B503AF2DE9000786B0824667
:1028580090F858008846D8B1032840F0ED809AF8DF
:10286800540000B3032840F0F3809AF851100AF19D
:102878000C0031B3032944D040F2D00040F2BC121E
:10288800C2F22000C2F22002232106F09DFFFEDEE4
:10289800002045F2EC018AF85400C2F20001DAF88F
:1028A8000000CAE90110DAE9016501F08FF928444E
:1028B800CAF824000AF10C0000218AF85110CAF85D
:1028C8004C60DAF82410524642F8281F0023516A57
:1028D80082F828300E79002E00F09880544644F88B
:1028E800483F264644E90D1446F81C3D012323724F
:1028F800234643F8046D44F8086C44E90F2344E97F
:102908000B14414600F03FFF814608B1032072E0F6
:10291800DAF84000016849B1007B00281CBF00209C
:102928008AF850009AF8500080BB58E00021DAE994
:1029380007608AF85010D0F8008006F0F1FDBFF368
:102948005F8F3268EAB11169424501D1316018E000
:10295800B9B1414513D00B699BB143450DD01969F5
:1029680079B1414507D00B695BB1434505D0196979
:1029780039B14145EFD11A4601E00A4619460969BD
:10298800116106F0D8FD9AF8500040B3DAE9075013
:10299800066806F0C5FDBFF35F8F2A68EAB11169C2
:1029A800B24201D1296018E0B9B1B14213D00B6924
:1029B8009BB1B3420DD0196979B1B14207D00B6907
:1029C8005BB1B34205D0196939B1B142EFD11A46AA
:1029D80001E00A4619460969116106F0ACFD0020BC
:1029E8008AF85000DAF82C0000281EBFC168DAF80F
:1029F8003000884701208AF858008AF854008AF87D
:102A08005100484606B0BDE80007F0BD012040F27D
:102A1800AC11019040F24810C2F22000C2F220012D
:102A2800009040F25C00C2F22000049302906846D5
:102A3800039306F0B3FEFEDE40F2D00040F2C0027F
:102A4800C2F22000C2F22002232106F0BDFEFEDE03
:102A580040F2D00040F2CC12C2F22000C2F22002B2
:102A6800232106F0B1FEFEDE084640F2F301C2F271
:102A78002001022207F00ABB45F26C000121C2F2D4
:102A88000000BFF35F8F80F879104EF20C20CEF271
:102A9800000020210160704745F200000121C2F2C8
:102AA8000000BFF35F8F80F869104EF20C20CEF261
:102AB8000000202101607047704780B56F4606F01E
:102AC8004CFDFCE7F0B503AF2DE9000F8DB045F2E2
:102AD8006C0848F26C1BC2F2000848F6C90A98F85C
:102AE8007800C2F2000BC0F2000A002800F06581ED
:102AF80008F179000021D0E84F2F012A2FD1C0E832
:102B0800421F002AF7D140F2C970BFF35F8FC0F2AD
:102B1800000002A9039049F68010C2F22200049135
:102B2800029098F81A00DFE810F007004701470103
:102B380012008800650211030020D8E9001288F805
:102B480074004CF25030C8F81C00C8E9021208F1B1
:102B58001C0004A9FFF776FE20B10321F3E1BFF3BF
:102B68002F8F2AE198F8740003283BD198F8700059
:102B7800032804BF98F86D00032833D1D8E90E5014
:102B8800046806F0CDFCBFF35F8F2A68EAB11169CB
:102B9800A24201D1296018E0B9B1A14213D00B6952
:102BA8009BB1A3420DD0196979B1A14207D00B6935
:102BB8005BB1A34205D0196939B1A142EFD11A46D8
:102BC80001E00A4619460969116106F0B4FCD8F813
:102BD8004800002188F86C1000281EBFC168D8F88A
:102BE8004C008847D8E9020100F019FDC0B2062858
:102BF80040F0AB80DBF80000022817D90020012143
:102C0800099040F2A822089040F25C00069140F238
:102C1800A021C2F22000C2F22001079005A8059168
:102C2800C2F220020321002303F082FD002088F86D
:102C3800740040F2DC50C8F81C0008F11C0004A91C
:102C4800FFF700FE08B104217DE198F8740003281D
:102C58003BD198F87000032804BF98F86D0003284A
:102C680033D1D8E90E50046806F05AFCBFF35F8FE1
:102C78002A68EAB11169A24201D1296018E0B9B104
:102C8800A14213D00B699BB1A3420DD0196979B148
:102C9800A14207D00B695BB1A34205D0196939B1CC
:102CA800A142EFD11A4601E00A46194609691161A5
:102CB80006F041FCD8F84800002188F86C1000287C
:102CC8001EBFC168D8F84C008847002000F06AFF92
:102CD8000646002000F066FF8146002000F062FFF3
:102CE8000546002000F05EFF0446002000F05AFF71
:102CF800A8F81800A8F81640A8F81450A8F81290D8
:102D0800A8F81060DBF800000328C0F02781002035
:102D180040F26C3209900220069040F24030C2F234
:102D28002000C2F220020590012008900BA807900D
:102D380040F26430C2F2200003210B9005A8002362
:102D4800CDF830A003F0F4FC08E1D0B9002007F872
:102D58004A1C40F2DC2109900120C2F220010690B1
:102D680008900BA8059140F2E421079044F25D70A9
:102D7800C0F20000C2F220010C90A7F14A000B90AB
:102D8800E8E0002007F84A1C0990012040F20C31C5
:102D9800069008900BA8C2F22001079048F25170E3
:102DA800059140F21431C0F200000C90A7F14A00DE
:102DB8000B90C2F22001CDE0FEDE45F20005C2F222
:102DC800000595F86800002800F0A58005F1690065
:102DD8000021D0E84F2F012A18D1C0E8421F002A4D
:102DE800F7D140F2E970BFF35F8FC0F2000002A98B
:102DF800039049F68010C2F222000491029095F8DF
:102E0800640000284BD12868686002E0BFF32F8F68
:102E180081E006F0A4FB0446F02006F0A4FB4AF685
:102E28007850C2F22200016801310160DBF800200D
:102E3800D11E18BF0121032A88BF4FF0FF314A1C59
:102E48001CBFC9B2002917D1002140F26C22099198
:102E58000221069140F25021C2F22001CDE90B0A6D
:102E68000591012108910BA905A80791C2F220023A
:102E78000321002303F05CFC204606F074FB68681D
:102E88000022D0E9000185F8602040F2DC5201F010
:102E98001F01AA60012202FA01F1C0F88C1005F1A5
:102EA800080004A9FFF7CEFC70BB95F86000032862
:102EB800AFD195F85C00032804BF95F859000328A2
:102EC800A7D1D5E90960046806F02AFBBFF35F8F34
:102ED80032685AB31169A24201D1316026E029B3A0
:102EE800A14221D00B690BB3A3421BD01969E9B1E8
:102EF800A14207D00B69CBB1A34213D01969A9B17C
:102F0800A142EFD11A460FE0DDE90210032285F84D
:102F18006420C9688847002006F025FB0DB0BDE88D
:102F2800000FF0BD0A4619460969116106F003FB56
:102F3800686B002185F8581000283FF46AAFC16813
:102F4800A86B884765E7DDE9022088F81A10D16880
:102F5800884732E705A806F021FCFEDED8F80850BD
:102F680001260BAC0123D5E9020101F01F0122461D
:102F780006FA01F1C0F8881030208DF82C0005A859
:102F8800294600F047FD0598002800F02B81D5E977
:102F9800020101F01F019DF82C2006FA01F1C0F88A
:102FA800841007F84A2CDBF8000002281BD90020FF
:102FB80040F2A83109900120069040F2B032CDE9E4
:102FC800074048F2BB60C0F20000C2F220010C903A
:102FD800A7F14A000B9005A80591C2F2200203212F
:102FE800002303F0A5FB002088F8740040F2DC50B1
:102FF800C8F81C0008F11C0004A9FFF723FC70BBEB
:1030080098F8740003283DD198F87000032804BF8D
:1030180098F86D00032835D1D8E90E50046806F0F9
:103028007FFABFF35F8F2A68FAB11169A24201D112
:1030380029601AE0C9B1A14215D00B69ABB1A3420E
:103048000FD0196989B1A14207D00B696BB1A342AE
:1030580007D0196949B1A142EFD11A4603E0052109
:1030680071E70A4619460969116106F064FAD8F849
:103078004800002188F86C1000281EBFC168D8F8E5
:103088004C00884740F27C400026C2F22000D8F865
:1030980008508DF81E60CDF81A60CDF8166000F063
:1030A8007FFDD5E90212012402F01F020DF12C095F
:1030B8000B2304FA02F2C1F888200F2105AA8DF823
:1030C80014008DF81D1048468DF81B108DF8191046
:1030D8008DF817108DF81510294600F09BFC0B98F9
:1030E800002800F09C80D5E9020101F01F019DF83D
:1030F800142004FA01F1C0F8841007F84A2CDBF810
:10310800000002281BD9002040F2EC310990012070
:10311800069040F2F432CDE9079048F2BB60C0F265
:103128000000C2F220010C90A7F14A000B9005A8FC
:103138000591C2F220020321002303F0F9FA0020CE
:1031480088F8740040F2DC50C8F81C0008F11C0034
:1031580004A9FFF777FB80BB98F8740003287FF475
:10316800FDAE98F87000032804BF98F86D00032896
:103178007FF4F4AED8E90E50046806F0D1F9BFF335
:103188005F8F2A68FAB11169A24201D129601AE059
:10319800C9B1A14215D00B69ABB1A3420FD01969CF
:1031A80089B1A14207D00B696BB1A34207D0196955
:1031B80049B1A142EFD11A4603E00621C3E60A4607
:1031C80019460969116106F0B6F9D8F848000021D6
:1031D80088F86C1000283FF4C1AEC168D8F84C00DC
:1031E8008847BBE69DF8180040F26C4107F8490C87
:1031F800002007F84A0CC2F22001099040F264400E
:10320800C2F220000696059040F23140C0F200005C
:10321800CDE907460C90A7F14A000B909AE69DF875
:10322800300040F2384107F8490C40F23040C2F211
:10323800200007F84A6C059040F23140C0F20000C7
:1032480009960C90A7F14A000694C2F22001CDE934
:1032580007940B907EE680B56F4606F071F948F248
:1032680070100121C2F2000001704EF26540CEF2EA
:103278000000F02101704EF20C10CEF20000202167
:10328800016000F003F8FFF718FCFEDEF0B503AFAD
:103298002DE9000FADF2F44DCDAC204601F085F8D4
:1032A80004A82146FFF704F80EAA04AD01AB089E56
:1032B80007CADDE90A8907C32846169C01F04CFCB9
:1032C80001A9284601F04DFC4EF210014FF0010B08
:1032D800CEF2000148F23C150868C4F21F0548F216
:1032E800205220F0010008600868C4F21F0240F074
:1032F8000400086048F69F404860086840F00200F3
:103308000860086840F00100086045F2EC00BFF36F
:103318005F8FC2F2000040F2E73180F804B0BFF3DB
:103328005F8F306820F001003060706861F30B0037
:1033380070603068052120F4B860803030603068F3
:1033480020F001003060B06840F02000B060F06804
:1033580020F02000F060306820F4007030603068A1
:1033680040F002003060B06840F00100B060F068E2
:1033780020F00100F060B06840F00200B060F06832
:1033880020F00200F060B06840F00400B060F0681F
:1033980020F00400F060A86A61F30300A862D9F87D
:1033A800040040F48060C9F80400A968032060F3B1
:1033B8000301A960A96841F01001A960002191608A
:1033C8006B6860F303036B606B6843F010036B601A
:1033D8005160EB6860F30303EB60EB6843F01003A4
:1033E800EB6011602A6860F303022A602A6842F0E1
:1033F80010022A600222C5F8E013226122462161E8
:1034080060622069216921F001012161216E21F0AA
:1034180040412166216960F300014FF00F102161DE
:1034280041F68021A065C0F20601C4F810B02069F9
:1034380040F440702061D4F810A0206920F0010009
:10344800206142F60010C0F2DE7003F07DFA2069B8
:1034580005226AF300002061E86A62F30300E8626B
:10346800D9F8040040F40060C9F80400206940F469
:10347800407020612069216921F001012161216EDC
:1034880021F040412166216960F30001216155F86E
:10349800340C62F3030045F8340CD8F8040020F427
:1034A8000020C8F8040003F093FB4FF400624FF4C7
:1034B800006A03F091FBD5F8CC2122EA0101084308
:1034C800C5F8CC0155F8240C052161F3030045F833
:1034D800240CD8F8040040F40000C8F8040055F89B
:1034E800380C61F3030045F8380CD8F8040045F2AD
:1034F8006C01C2F2000120F48020C8F80400C9F869
:1035080084A001F17800D0E84F2F42B9BFF35F8F54
:10351800C0E842BFBAB1D0E84F2F002AF8D040F235
:10352800242040F20823C2F22000BFF32F8F00901E
:1035380040F2DC1004AAC2F22000C2F220032B21C0
:1035480006F079F9FEDE4AF6A85C4AF67C530020BC
:10355800C2F2220CC2F22203BFF35F8F4EF21002B6
:103568008876C1E9003C0125BFF35F8F81F8795067
:103578002021CEF200029DF812504FF0170EC2F82B
:10358800FC111222BDF810104FF0130AA3F82910ED
:103598004AF67851C3E90882C2F2220183E811028F
:1035A8000B2203F10C0483F8280084E80405C3E91E
:1035B800068E83F82B500860CCF800600DF2F44DAD
:1035C800BDE8000FBDE8F04005F0BCBF80B56F4610
:1035D80000F0F7FABDE88040FFF7EAB8006805F0A8
:1035E800CABFB0B502AF056808460C4606F089FEAA
:1035F80028B128462146BDE8B04007F001BA204668
:1036080006F083FE28B128462146BDE8B04007F001
:1036180037BA28462146BDE8B04007F071BAF0B580
:1036280003AF4DF804BD04460D68D0E9060202F068
:103638001F01012202FA01F1C0F888102A612868E6
:1036480040F001002860A868C00709D1A868C00731
:1036580004BFA8685FEAC07002D1A868C007F2D0AA
:10366800A86801220A2340F00100A860286820F019
:1036780001002860D4E9060101F01F0102FA01F1F6
:10368800C0F88410D4E9040101F01F0102FA01F125
:1036980064222B612E6846F001062E60AE68F6079C
:1036A80009D1AE68F60704BFAE685FEAC67602D1F4
:1036B800AE68F607F2D0AE6846F00106AE602E6836
:1036C80026F001062E6086680E4206D1013AE0D146
:1036D800052001215DF804BBF0BDD4E902010126F3
:1036E80001F01F0149F20052C0F2020206FA01F18C
:1036F800C0F8881040F27D41C2F22001204600F057
:10370800DCF80146C0B2062832D1D4E9020101F042
:103718001F0106FA01F1C0F88410642064212861B1
:103728002A6842F001022A60AA68D20709D1AA6869
:10373800D20704BFAA685FEAC27202D1AA68D20798
:10374800F2D0AA6842F00102AA602A6822F00102B7
:103758002A60D4E9082303F01F039268DA40D207ED
:103768000AD10139DBD1052002215DF804BBF0BD87
:1037780000205DF804BBF0BD012084F82800062075
:103788005DF804BBF0BDF0B503AF2DE9000F81B0C3
:1037980080460C6800F01AFAD8F800603168451ABB
:1037A800B5F1FF3F04DDE80F01B0BDE8000FF0BD43
:1037B800D8F80400D0F800B0DBF800000028F2D1F7
:1037C800D4E90010096888470446DBF800008946F8
:1037D800366800281EBFC168DBF80400884700204F
:1037E800D8F808A0CBF810008BF80C00CBE90049FA
:1037F800CBF8086005F094FEBFF35F8FDAF800108D
:1038080091B38A68DBF808C0BCEB02022AD4D1F86D
:1038180010E0BEF1000F41D0DEF80820BCEB020238
:103828003AD47346196971B38A68BCEB02022CD486
:10383800D1F810E0BEF1000F30D0DEF80820BCEB64
:10384800020229D4DEF8102012B39168BCEB010102
:1038580020D413697BB39968BCEB0101E2D59E467D
:10386800114619E0CBF81010CAF800B005F063FE55
:10387800D8F80C00C0F800B000F0C1F9E80F01B0AA
:10388800BDE8000FF0BD194608E08E46194603E072
:10389800714603E071469646CBF810E0C1F810B0C7
:1038A80005F049FED8F80C00C0F800B0E80F01B0E8
:1038B800BDE8000FF0BD1146F0E7F0B503AF4DF8D5
:1038C800048D84B0446806466069C00113D4154667
:1038D800B2B120698846082140F44070206101A8EF
:1038E80003F01FF8019802280FD19DF8080004B0D2
:1038F8005DF8048BF0BD042004B05DF8048BF0BDC6
:10390800052004B05DF8048BF0BD9DF8080008EBB5
:10391800050C9DF809109DF80A209DF80C3061F3FC
:103928000B209DF80EE0366840EA82504FF2000204
:1039380040EA83404FEA0E55CFF60372F10546463A
:1039480008F1010863691B0553D4E36DDB0611D543
:1039580063691B054DD4E36DDB060BD563691B0555
:1039680047D4E36DDB0605D563691B0541D4E36DD8
:10397800DB06E7D4236E13402B430B43034343F486
:103988002013236663691B0533D4E36DDB0611D569
:1039980063691B052DD4E36DDB060BD563691B0535
:1039A80027D4E36DDB0605D563691B0521D4E36DD8
:1039B800DB06E7D433784FF48015E0456366BED163
:1039C8000EE0E36DDB0619D563691B0511D4E36DC1
:1039D800DB0613D563691B050BD4E36DDB060DD538
:1039E80063691B0505D4E36DDB0607D563691B0511
:1039F800E7D5002004B05DF8048BF0BD236E1A40B3
:103A08001143084340F400202066062004B05DF806
:103A1800048BF0BDF0B503AF2DE9000F85B04D68FC
:103A280004466869C00111D499468BB128690E46CD
:103A38000821904640F44070286102A802F071FF06
:103A48000298022806D19DF80C0097E0042095E022
:103A5800052093E09DF810104FF0000B9DF80C0026
:103A68004FF0010A9DF80DC09DF80EE089049DF8FD
:103A78000F306CF30B20366840EA8E509DF8122008
:103A880041EAC341019241EA00034FEAC65E0120C0
:103A9800002201210BE0CB454FF0000038BF012088
:103AA8004A454FF0000134BF0121CB456DD2C9070B
:103AB80050D018F802600132B2EB090C08BFE24698
:103AC8006969090559D4E96DC90611D569690905F6
:103AD80053D4E96DC9060BD5696909054DD4E96D5B
:103AE800C90605D56969090547D4E96DC906E7D44A
:103AF8000199F4460093B6465FFA8AF643EA015103
:103B08002B6E41EA46514FF20006CFF6037633405A
:103B18007646E64643EA0C031943296669690905AE
:103B28002BD4E96DC90611D56969090525D4E96D54
:103B3800C9060BD5696909051FD4E96DC90605D5FC
:103B48006969090519D4E96DC906E7D46E660121CA
:103B58000191009BC0079ED06869C0041BD4286FE0
:103B6800800798D4686FB0F5807F28BF4FF0FF308A
:103B780008F80B000BF1010B8DE7002000212071E4
:103B8800216005B0BDE8000FF0BDC4E9008905B0AB
:103B9800BDE8000FF0BD0120F0E7006802F036BF75
:103BA8000078704701B20029A0F50071C0F1000249
:103BB80048BF42F4007089B2B1F57C4F98BF00202D
:103BC800704745F2EC00C2F2000070474EF2100058
:103BD800CEF200000068C00345F2E800C2F200001F
:103BE8000AD5BFF35F8F50E8001F013140E800128B
:103BF800002AF8D1BFF35F8F0068704770474EF610
:103C080004504FF08061CEF20000016070474EF220
:103C18001000CEF200000068C00358BF704745F29C
:103C2800E800BFF35F8FC2F2000050E8001F0131C7
:103C380040E80012002AF8D1BFF35F8F7047704741
:103C4800014649F68010C2F22200704700477047CB
:103C5800006805F007BD80B56F468AB0019044F250
:103C6800B820C2F200000021D0E84F2FC0E8431F5F
:103C7800002BF9D162B348F26C10C2F2000001685F
:103C8800481E18BF0120012988BF4FF0FF30411C92
:103C98001CBFC0B200281BD1002049F69011069025
:103CA8000120039049F60422059008A8049041F6E3
:103CB800A110C0F20000C2F22201099001A80890E8
:103CC80002A80291C2F222020121002302F030FD73
:103CD80000F001F8FEDE80B56F4648F24810052175
:103CE800C4F21F004FF2800301603821C0F8F011C0
:103CF8004CF26C00C4F20A004DF2801E01684AF2D0
:103D0800003CC0F2FA23C0F6F00E21F00801016071
:103D18004CF28400C1F2E11CC4F21B0050F8801C74
:103D280041F0080140F8801C082101601A46013A58
:103D3800FDD141601A46013AFDD101601A46013AA7
:103D4800FDD141601A46013AFDD101601A46013A97
:103D5800FDD141601A46013AFDD101607246013A2F
:103D6800FDD141607246013AFDD101607246013AC7
:103D7800FDD141607246013AFDD101607246013AB7
:103D8800FDD141607246013AFDD101601A46013AFF
:103D9800FDD141601A46013AFDD101601A46013A47
:103DA800FDD141601A46013AFDD101601A46013A37
:103DB800FDD141601A46013AFDD16246013AFDD172
:103DC800B3E7F0B503AF4DF8048D82B004682168FD
:103DD80079BBD0E901124FF0FF33C068236009684E
:103DE800D0F8008004F12000167803F0EAF86D4658
:103DF800CDE90001284603F0FEF8284603F043F910
:103E0800002E18BF01262846314603F048F92846F7
:103E1800012103F008F92846414603F012F9284623
:103E280003F0F5F820680130206002B05DF8048BDB
:103E3800F0BD49F67C20C2F2220005F0C0FBFEDE90
:103E480070477047084649F63451C2F222011222DF
:103E580006F053BAF0B503AF2DE9000FB3B045F241
:103E6800FC01044648F23410C2F20001C2F200001C
:103E7800016001208DF8100005F078FB46F200057E
:103E880041F23810C2F200052918BFF35F8F51E8DC
:103E9800000F40F0004241E80023002BF7D1B0F1B9
:103EA800FF3FBFF35F8F40F3138245F22C5001228E
:103EB800C2F20000BFF35F8F00F5C070D0E84F1F5B
:103EC800C0E8432F002BF9D103940029BFF35F8F7B
:103ED80040F00A8245F22C504FF4C071C2F2000043
:103EE80002F069FFCDE9300149F20000C4F20D008B
:103EF80005F586512F900020C4F22E000DF19C0B81
:103F08002E9041F2381028442D9006204FF0000AD8
:103F1800CDE92A0105F58051299101212C904FF016
:103F28000109CDE927505846ADF8C8A003F0DFF8DD
:103F3800BBE87E000DF1140808F104007EC09BE880
:103F48007E007EC040469DF810108DF84890CDF850
:103F580014A004F0C8F803999DF848002A9104A910
:103F6800299126A9CDF898A0CDE9278118B127A8CD
:103F7800FFF727FF0DE005F0EDFA044605F0E0FA3B
:103F880005F0F4FA27A8FFF71CFFE00708BF05F0C3
:103F9800D9FA48F2000AB8E85C00C2F2000A0AF14D
:103FA8000C0B40F2014158465CC0B8E87C007CC06C
:103FB80098E87C007CC000200322AAF804104FF087
:103FC800FF31CAF808100821CAF844008023CAF84B
:103FD8000000FF20CDE900218021029058460022F0
:103FE80004F096FA0D46DAF80810C00701F101014D
:103FF800CAF8081040F08481DAF80000002840F080
:1040080086819AF8046000200029CAF8000006F1A9
:1040180001028AF8042040F054814FF0FF31022257
:10402800CAF808104021CDE9002100210290584625
:104038000022002304F06CFA0C46DAF80810C007D6
:1040480001F10101CAF8081040F06881002940F028
:1040580038814FF0FF304FF04009CAF808000220BD
:104068004FF00008CDE9000958468021002280233E
:10407800CDF8088004F04CFADAF80820C00702F1FD
:104088000102CAF8082040F04C8148F238104FF479
:104098000073C2F20000002A80F8261040F2FF31B7
:1040A80080F82D600AF14406A0F80F104FF00801BF
:1040B800818181804FF4FA51A0F82E8080F82C80FD
:1040C800A0F82730A0F824900662A0F81B30847668
:1040D800A0F8189046618573866080F806800160B4
:1040E80040F0EF804FF0FF304021CAF80800002070
:1040F800CDE900010021029058460122002304F076
:1041080007FA8946DAF80810C00701F10101CAF870
:10411800081040F01A81002940F0D3804FF0FF309A
:104128004021CAF808000020CDE900018021029052
:1041380058460122802304F0EBF98846DAF8081083
:10414800C00701F10101CAF8081040F00581DAF84A
:104158000000002840F014814FF0FF300029CAF811
:10416800000040F01481CAF80800584604F054FAD8
:10417800DAF808000130CAF80800C0F00F814FF0E3
:10418800FF3005ADCAF80800E81CBFF35F8FCAF816
:1041980044B08021BFF35F8F06F046FF5846812167
:1041A80003F0F5FF5846012103F0F1FF584682213C
:1041B80003F0EDFF5846022103F0E9FF584683213A
:1041C80003F0E5FF5846032103F0E1FF5846842138
:1041D80003F0DDFF5846042103F0D9FF5846852136
:1041E80003F0D5FF5846052103F0D1FF5846862134
:1041F80003F0CDFF5846062103F0C9FF5846872132
:1042080003F0C5FF5846072103F0C1FF48F24804F0
:10421800DDE92701C2F20004BDF8A4206281BDF8DF
:104228009820C4F806109DF89A10C4F8020004F10A
:104238002100A4F815208322E175294606F0F2FE34
:104248004FF0806149F64652C4E937B13221C4F8CB
:10425800D6100221C4F20001C2F22202C4F8D21020
:104268001021A4F8D01045F62401C2F2DD71002017
:10427800C4F8CC100921C4E92F21402117F8D52C06
:1042880037F8D73C84F8E400C4F8C400C4E92B002C
:10429800C4F8B400C4F8A400A4F81F0084F81E8071
:1042A800A183A661A4F8130084F812902182E66025
:1042B8002080A4F8E53084F8E72033B0BDE8000F8B
:1042C800F0BD49F62440C2F2220005F078F9FEDE7E
:1042D80049F68C2049F60832C2F22200C2F22202C4
:1042E8001F2105F0A2F9FEDE49F6583049F6B8322A
:1042F800C2F22200C2F22202202105F096F9FEDE67
:1043080049F624508DF81450C2F222000FE049F605
:104318006440C2F2220005F052F9FEDE8DF8144026
:1043280001E08DF8141049F61450C2F2220049F643
:104338007443009049F6045005AAC2F22200C2F262
:1043480022030F2105F077FAFEDE49F6F4408DF8D6
:104358001490C2F2220005E049F6E4408DF814807A
:10436800C2F2220049F67443009049F6183005AAB3
:10437800C2F22200C2F22203202105F05CFAFEDE1E
:1043880049F65440C2F2220005F019F9FEDE49F65A
:104398004440C2F2220005F012F9FEDE49F634402C
:1043A800C2F2220005F00BF9FEDEF0B503AF2DE9ED
:1043B800000F81B045F2F4014FF0010CC2F2000188
:1043C800BFF35F8FD1E84F2FC1E843CF002BF9D15E
:1043D800BFF35F8F002A01BF48F20001C4F20D014C
:1043E8000022C4F22F0201BF02F5542C02F5502E10
:1043F80002F54C28A1F5004401BFA1F5003501F5EF
:10440800F61601F5F413C0E9683601BFC0E96A542D
:10441800C0E96C8EC0E96EC101F5005E01BF01F50F
:10442800805640F2040CC4F22E0C01F5021401BFB0
:104438000CF5FE7501F5004300F5C07888E83800F2
:1044480001BF00F5C67383E81210C0E9666EA1F5D6
:10445800404C01BF01F5881E01F5861801F584144A
:1044680001F5821301BF01F5003602F51025C0E9F8
:10447800585600F5B47501BF85E81A41C0F87CC1EB
:10448800A1F5804C02F51C2E01BF02F5182802F593
:104498001424A1F5E03301F5282601BF01F5EE1536
:1044A800C0E9505600F5A47585E8184101BFC0E978
:1044B800562C02F5782802F5742902F5702401BFFC
:1044C80002F56C234CF2000CC4F2070C0CF5004604
:1044D80001BF01F5E03E01F58E15C0E9485EC0E96F
:1044E8004A6101BF00F5987585E81802C0F83C815B
:1044F80001F5482801BF01F5442901F5402A01F5D5
:104508003C2B01F5382301BF01F5342401F5302592
:1045180001F52C26C0E9406501BFC0E94243C0E966
:1045280044BAC0E9469802F5302801BF02F52C29A3
:1045380002F5282A02F5242B02F5861301BF02F59D
:10454800841402F5821502F58016C0E9386501BFAA
:10455800C0E93A43C0E93CBAC0E93E9801F5F01811
:1045680001BF01F59219A1F5503AA1F5403BA1F51B
:10457800303301BF01F5901401F58C1501F58A1649
:10458800C0E9306501BFC0E93243C0E934BAC0E9C7
:10459800369844F2000B01BFC4F2002B0BF500491A
:1045A8000BF5804A4FF0844801BF01F56C2601F5F0
:1045B800682401F56425A1F5C03301BFC0E9283599
:1045C80000F1A80383E85009C0E92EA901BF01F54D
:1045D800602801F5E61901F5E81AA1F5203601BFB2
:1045E8000BF5E03301F5582401F55425C0E92054B2
:1045F80001BF00F1880484E84804C0E9259EC0F89A
:104608009C8001BFA1F5103E01F5FE1801F50019C7
:1046180002F5642A01BF02F5602302F55C2602F563
:10462800582501F5A03401BF00F1600B8BE870003C
:10463800C0E91B3AC0E91D9801BFC0F87CE001F54C
:10464800803E02F540480CF5804901BF01F5804ADB
:1046580001F5F21344F20806C4F2090601BF06F197
:10466800100506F10804C0E91064C0E9125301BF3F
:10467800C0E914A9C0E9168E0CF5C03E01F5103842
:1046880001BF01F5801901F57C2401F5782302F5B5
:104698007C2601BF02F54825C0E9085600F1280527
:1046A80085E8180201BFC0E90D81C0F83CE002F5B9
:1046B800442E02F50C2601BF01F5D21501F524247C
:1046C80002F54022A1F5803301BFA1F5A031C0E970
:1046D8000013C0E9022C103001BF80E8704001B01F
:1046E800BDE8000FF0BD49F64F5049F6E452C2F25A
:1046F8002200C2F22202352105F066F8FEDEF0B58E
:1047080003AF4DF804BD0E4600211546044602F0DD
:1047180021FA284640F2E24102F04AF9304602F016
:1047280059F849F698352146C2F222050022284652
:10473800366802F075F8A81C2146002202F070F8CD
:10474800281D2146002202F06BF8A81D21460022F0
:1047580002F066F805F108002146002202F060F830
:1047680005F10A002146002202F05AF805F10C0072
:104778002146002202F054F805F10E0021460022DD
:1047880002F04EF805F110002146002202F048F828
:1047980005F112002146002202F042F805F114004A
:1047A8002146002202F03CF805F1160021460022BD
:1047B80002F036F805F118002146002202F030F820
:1047C80005F11A002146002202F02AF805F11C0022
:1047D8002146002202F024F805F11E00214600229D
:1047E80002F01EF820684169890107D5416921F066
:1047F80000714161204602F09EF92068416901225A
:1048080021F0605141612068816962F30D31816155
:10481800204602F090F92068416941F00071416139
:10482800204602F088F94FF48050306064203060F0
:104838004FF4005070603068002809D430680028B0
:104848005CBF3068002803D43068B0F1FF3FF2DC69
:1048580020680122016962F302010161204602F029
:104868006AF92068416921F4E0514161204602F06B
:1048780062F92068816941F44021816120684169B9
:1048880021F000714161204602F055F9206840F29C
:104898003425C2F220050022416941F4407141618A
:1048A8002846214601F0BCFFA81C2146002201F041
:1048B800B7FF281D2146002201F0B2FFA81D21469E
:1048C800002201F0ADFF2068022640F244250022B4
:1048D800C2F22005816B66F3D84181632068816B41
:1048E80041F4802181632846214601F099FFA81CE4
:1048F8002146002201F094FF281D2146002201F0E4
:104908008FFFA81D2146002201F08AFF206849F682
:10491800F4550322C2F22205816966F3051181610B
:104928002068816962F39C618161284621460022E2
:1049380001F076FFA81C2146002201F071FF281D16
:104948002146002201F06CFFA81D2146002201F03B
:1049580067FF05F108002146002201F061FF206889
:10496800172249F62065C2F22205C16962F30501E2
:10497800C16120680022C16941F04001C161284637
:10498800214601F04DFFA81C2146002201F048FFF6
:10499800281D2146002201F043FFA81D21460022C0
:1049A80001F03EFF05F108002146002201F038FF22
:1049B80005F10A002146002201F032FF05F10C0042
:1049C8002146002201F02CFF05F10E0021460022AD
:1049D80001F026FF206849F63065C2F2220503225D
:1049E800416A41F0400141622068416A66F305016D
:1049F80041622846214601F013FFA81C21460322E4
:104A080001F00EFF281D2146032201F009FFA81D11
:104A18002146032201F004FF05F108002146032284
:104A280001F0FEFE05F10A002146032201F0F8FE1E
:104A380005F10C002146032201F0F2FE05F10E00FB
:104A48002146032201F0ECFE05F110002146032265
:104A580001F0E6FE05F112002146032201F0E0FE16
:104A680005F114002146032201F0DAFE05F11600D3
:104A78002146032201F0D4FE05F118002146032245
:104A880001F0CEFE05F11A002146032201F0C8FE0E
:104A980005F11C002146032201F0C2FE05F11E00AB
:104AA8002146032201F0BCFE05F120002146032225
:104AB80001F0B6FE05F122002146032201F0B0FE06
:104AC80005F124002146032201F0AAFE05F1260083
:104AD8002146032201F0A4FE05F128002146032205
:104AE80001F09EFE05F12A002146032201F098FEFE
:104AF80005F12C002146032201F092FE05F12E005B
:104B08002146032201F08CFE05F1300021460322E4
:104B180001F086FE05F132002146032201F080FEF5
:104B280005F134002146032201F07AFE05F1360032
:104B38002146032201F074FE05F1380021460322C4
:104B480001F06EFE05F13A00214603225DF804BB30
:104B5800BDE8F04001F064BE80B56F4601F0C0FBCF
:104B680080BD80B56F464EF20C1C4FF4003ECEF26D
:104B7800000C44F2BC22CCF880E0C2F20002BFF381
:104B88005F8FD0E900318068C2E900319060BFF3DF
:104B98005F8FCCF800E1CCF800E080BDF0B503AF42
:104BA8004DF8048D86B045F2F808C2F20008D8F82E
:104BB800000028B106B05DF8048BBDE8F04000475E
:104BC80044F2BC20C2F200000068062832D101F08D
:104BD8003EFD01F03BFD039045F2FC00C2F20000EF
:104BE800012200F21240BFF35F8FD0E84F1FC0E8E8
:104BF800432F002BF9D10029BFF35F8F58D145F21D
:104C0800FC044FF48061C2F20004204606F038F834
:104C180004F086FC0646204600F098FA03A8FFF741
:104C280019F944F24500C0F2000000F084FB054683
:104C3800304635E001F00BFD01F008FD029045F229
:104C4800FC00C2F20000012200F21240BFF35F8FA5
:104C5800D0E84F1FC0E8432F002BF9D1BFF35F8F77
:104C6800C1BB45F2FC054FF48061C2F2000528463D
:104C780006F006F804F054FC44F2BC210446C2F2E3
:104C88000001284601F0B6FA08BB02A8FFF7E2F8CF
:104C980044F24500C0F2000000F04DFB05462046F6
:104CA80004F049FCC8F8005006B05DF8048BF0BD6C
:104CB80049F20000C4F20D0005900020C4F22E0055
:104CC800CDE9030049F61470C2F2220010E0204634
:104CD80004F031FC49F20000C4F20D0005900020F8
:104CE800C4F22E00CDE9030049F60470C2F2220096
:104CF80049F69863009049F66C6003AAC2F2220054
:104D0800C2F222032B2104F096FDFEDEFEE7F0B589
:104D180003AF4DF8048D8C46816881B3C36841693F
:104D28008B4249D20269D0F818E0D45C0134D454DB
:104D38000EF102038B421ED80EF58074A14238BFD3
:104D48000C469C4248D3E41A052C14D39CF8064020
:104D5800BCF80450D45413440EF107049CF80860BE
:104D68008C429CF807805E704FEA15269D7083F888
:104D78000480DE7007D902205DF8048BF0BD07209F
:104D88005DF8048BF0BD8E451ED2072302F80E3065
:104D98000EF101038B423FBF0521D15484610820E5
:104DA8003CBF5DF8048BF0BD49F6A872C2F222023E
:104DB800184604F020FDFEDE49F6B872C2F222025F
:104DC800184604F018FDFEDE49F698727046C2F2E5
:104DD800220204F010FDFEDE49F688721846C2F27F
:104DE8002202214605F02FFBFEDE002070477047A7
:104DF800082070477047F0B503AF4DF8048D05469D
:104E0800507A012802BF1646107A012802D05DF8B0
:104E1800048BF0BD95F82C008846748803F048FF91
:104E2800C0B28442F3D1B079212804BFB0880728E2
:104E380030D0B8F8000000F00D000428E7D1D8F809
:104E48000C000921A8F800100068BFF35F8FA8B113
:104E580098F81210012203F015FED8F8180000681F
:104E6800BFF35F8F00281FBF98F81E1001225DF85E
:104E7800048BBDE8F04018BF03F004BE4AF2982046
:104E88004AF21C32C2F22200C2F22202222104F0AB
:104E98009BFCFEDEB8F800000428B8D1B8F806007C
:104EA800002329796A790728C8F8AC30AB792E68CD
:104EB8004FF00105A8F80050C8F8246088F8283099
:104EC80088F8292088F82A1028BF0720C8F8B000D9
:104ED80040465DF8048BBDE8F04000F0C5BAF0B577
:104EE80003AF4DF8048D84B00546507A012802BFFF
:104EF8001646107A012803D004B05DF8048BF0BD83
:104F080095F82C008846748803F0D2FEC0B284421B
:104F1800F2D1B07988B1202814D0222845D1307830
:104F2800B8F8001000F0010285F82E20C0F3400008
:104F380085F82F000629DFD11FE0B8F80000062801
:104F4800DAD11AE0D8F8B000812860D206282CD926
:104F580098F82800D8F82410296001F07BFB98F80D
:104F68002910A871084601F07AFB98F82A20B8F8A9
:104F7800001068712A710629BED1D8F81800016896
:104F8800BFF35F8FB9B398F81E2000204AF241039F
:104F9800009002A8C2F2220303F006FC0820A8F839
:104FA800000004B05DF8048BF0BDB8F8000000F014
:104FB8000D000428A0D1D8F80C000921A8F8001089
:104FC8000068BFF35F8FB0B198F81210012203F0A8
:104FD80059FDD8F818000068BFF35F8F00281FBF7D
:104FE80098F81E10012204B05DF8048B1CBFBDE8C0
:104FF800F04003F047BD4AF298204AF21C32C2F250
:105008002200C2F22202222104F0DEFBFEDE4AF276
:105018002C028021C2F2220205F0F5F9FEDEF0B57D
:1050280003AF2DE9000B84B090F82C608146002571
:105038000220CDE900050C4608463146022202232B
:1050480003F0A5FFC1B208296DD1204631460222DE
:105058000223009503F0F1FFC1B2082963D14AF297
:105068003C022046C2F222022421032303F02CFE34
:10507800C1B2082957D14AF23F022046C2F22202A1
:105088002421022303F020FEC1B208294BD1304667
:1050980003F00EFE99F82D800646404603F008FE00
:1050A80007F81C0C0620A7F11E0207F81E0C204664
:1050B8002421032307F81D6C03F006FEC1B208295A
:1050C80031D1404603F0F4FD07F8190C0120A7F18F
:1050D8001B0227F81B0C20462421032303F0F4FDB0
:1050E800C1B208291FD109F108012046FFF70FFEB8
:1050F800C1B2082917D100204146009020460A2253
:10510800002303F09AFFC1B208290CD109F120014C
:105118002046FFF7FCFDC1B2082904D109F11401AA
:105128002046FFF7F4FD04B0BDE8000BF0BDD0B594
:1051380002AF82B00446684601F096FADDE9000144
:10514800C4E900010020E08502B0D0BD45F210514D
:10515800C2F2000188600120BFF35F8F08707047BA
:10516800F0B503AF2DE90007166889461446804656
:1051780006F211450121BFF35F8FD5E84F0FC5E84F
:10518800421F002AF9D1BFF35F8F18B10120BDE893
:105198000007F0BDD6F80004BFF35F8FD6F80414FB
:1051A800BFF35F8F884204D2C24311EB020A0BD1CE
:1051B80078E0B0F5806F05D1012973D9A1F1010A12
:1051C800002001E0C0F5806A4D46CA4538BF554603
:1051D80029183044BFF35F8FC6F80C1441462A469D
:1051E80005F020FF96F81104BFF35F8F68B3D6F877
:1051F800000406F20C41BFF35F8FBFF35F8F51E8E5
:10520800002F41E80023002BF9D1BFF35F8FB0F5E1
:10521800806FD6F80824BFF35F8FD6F80C14BFF35D
:105228005F8F01D0814203D3914205D94FF480604A
:10523800BFF35F8FC6F80804BFF35F8FC6F800148A
:105248000020BFF35F8F86F81104CA456FD2246827
:1052580008EB0501A9EB0502012304F21145BFF390
:105268005F8FD5E84F0FC5E8463F002EF9D10028DB
:10527800BFF35F8F7FF48AAFD4F80004BFF35F8F6A
:10528800D4F80434BFF35F8F984203D2C6439B1906
:1052980012D107E0B0F5806F0CD1012B02D9013B88
:1052A800002009E000200021BFF35F8F2970BDE8CE
:1052B8000007F0BDC0F58063934238BF1A46131843
:1052C8002044BFF35F8FC4F80C3405F0ABFE94F8AC
:1052D8001104BFF35F8F50B3D4F8000404F20C41FB
:1052E800BFF35F8FBFF35F8F51E8002F41E80023C2
:1052F800002BF9D1BFF35F8FB0F5806FD4F8082485
:10530800BFF35F8FD4F80C14BFF35F8F01D08142D5
:1053180003D3914205D94FF48060BFF35F8FC4F87F
:1053280008040320BFF35F8FC4F80014BBE7032011
:10533800BDE80007F0BD7047F0B503AF4DF804BDF8
:1053480086B0044608880D46411E032928D305283F
:1053580026D0072836D1D5F8AC00D5F806306989AB
:105368008128D5F80220ADF80C10CDE9012373D2BD
:10537800E9680968BFF35F8F002961D0C0F1800335
:10538800AA7C2844009300F1240304A803F0C3FA7C
:105398009DF8100000283ED09DF8110008BB34E0AD
:1053A800E8680168BFF35F8F002949D0AA7C4AF2F8
:1053B800410304A80026C2F22203009603F0ABFAC8
:1053C8002E8022E0E8680168BFF35F8FC1B3002038
:1053D800AA7C4AF24103009004A8C2F2220303F017
:1053E8009AFAE868092129800068BFF35F8F38B30B
:1053F800A97C012203F046FBA8690068BFF35F8F10
:10540800F0B1A97F012203F03DFB0420607206B0D1
:105418005DF804BBF0BD0598D5E92B120844C5F822
:10542800AC009042F1D3DDE901010623BDF80C2060
:105438002B8020606160228106B05DF804BBF0BD5E
:105448004AF298204AF21C32C2F22200C2F2220228
:10545800222104F0B9F9FEDE4AF2A4028021C2F248
:10546800220204F0B0FFFEDEB0B502AF84B00446FD
:10547800D0E92951D0F8AC00D4F8B0C0002DA38BE6
:10548800AE46ACEB000208BF04F1240E9A4238BFC6
:105498001346002D03EB000C08BF80219C4525D343
:1054A8008C452BD8A1690968BFF35F8F71B3A27FC0
:1054B80000930EEB000302A803F076F99DF80800AC
:1054C80008B104B0B0BD0398D4E92B120144C4F864
:1054D800AC109142F5D30021A28BC4F8A41003218B
:1054E800904208BF0221218004B0B0BD4AF2C40234
:1054F8006146C2F2220204F0A6FFFEDE4AF2C402AE
:105508006046C2F2220204F07EFFFEDE4AF29820D4
:105518004AF21C32C2F22200C2F22202222104F014
:1055280053F9FEDED0B502AF0446008800F00D0046
:10553800042815D1E068092121800068BFF35F8F36
:1055480080B1A17C012203F09DFAA0690068BFF335
:105558005F8F38B1A17F012203F094FA0820D0BDF3
:105568000720D0BD4AF298204AF21C32C2F222002B
:10557800C2F22202222104F027F9FEDEF0B503AFC1
:105588002DE9000782B01D46904689468246D6001E
:105598000C466EB1F4E802012A464B6A5146984718
:1055A800BAF80000083E00F00D000428F1D033E0FE
:1055B800687AA8B3BAF8000000F00D0004282BD1CF
:1055C800DAF80C000921AAF800100068BFF35F8F11
:1055D800B0B19AF81210012203F054FADAF8180060
:1055E8000068BFF35F8F00281FBF9AF81E100122C2
:1055F80002B0BDE800071CBFBDE8F04003F042BAA6
:105608004AF298204AF21C32C2F22200C2F2220266
:10561800222104F0D9F8FEDE02B0BDE80007F0BD93
:10562800297AA879A1B1012930D0022908BF002818
:10563800C0D16988DAF8DC0001F08F0103F097FA2D
:10564800BAF800100429B5D1AAF8240000203BE0DC
:10565800002844D006285ED0082804BFBAF8000005
:105668000428A7D1BAF8061001229AF8E2300020DF
:10567800AAF80020002918BF0121CAE92B01981EA9
:10568800B0FA80F040098AF8240040E0A0B10A2866
:1056980004BFBAF8000004287FF48CAFBAF80610EB
:1056A800002001228AF82400AAF80020002918BF47
:1056B8000121CAE92B012AE0BAF8000004287FF486
:1056C80079AF0020AAF82400BAF806200121AAF828
:1056D8000010022A28BF0222CAE92B0217E0BAF8F2
:1056E800000004287FF466AF9AF8E00001239AF8D6
:1056F800E1100022BAF80660AAF8003041EA40003A
:10570800022E28BF0226CAE92B26AAF824005046F2
:10571800FFF7AAFE4EE70AF1B4004946424653464F
:10572800009500F0BFF845E7F0B503AF4DF8048DDC
:1057380082B01D460E468046D4006CB1F6E80201E0
:105748002A460B6A41469847B8F80000083C00F022
:105758000D000428F1D033E0687AA8B3B8F8000047
:1057680000F00D0004282BD1D8F80C000921A8F866
:1057780000100068BFF35F8FB0B198F812100122D3
:1057880003F080F9D8F818000068BFF35F8F00288D
:105798001FBF98F81E10012202B05DF8048B1CBFD1
:1057A800BDE8F04003F06EB94AF298204AF21C3284
:1057B800C2F22200C2F22202222104F005F8FEDE23
:1057C80002B05DF8048BF0BD2A7AA879298862B105
:1057D800012A1BD0022AC1D101281ED0032808BFE4
:1057E8000029BBD1698801221CE001380828B5D8F6
:1057F800DFE800F0060521052A0505053400ADE7B8
:105808000129ABD1B8F8000000211AE00B2808BF25
:105818000029A3D1B8F800002EE000297FF49EAF3C
:1058280069880022D8F8DC0001F08F0103F02AF91A
:10583800B8F8000020E001297FF490AFB8F8000024
:10584800012188F8E01017E0481E80B27F28BFF4D5
:1058580085AFD8F8DC0002F09AFE08E021B10129F2
:105868007FF47CAF022103E098F8E200A8B101219F
:10587800B8F8000088F8E21006287FF46FAF4AF203
:10588800410208F11801C2F222026846002300F022
:1058980001FD0820A8F8000060E74046FFF742FE37
:1058A8005CE7D4D4F0B503AF2DE9000F8FB0044600
:1058B800B86816460D469846018902684068ADF8F2
:1058C8000C10CDE9012001A803F0EFF94FF0FF32E9
:1058D80052FA80F00E2800F20581DFE810F00F0080
:1058E8003200650003010301030103010301030101
:1058F800030103010301030103019300B8F8000049
:10590800042840F0A58007AD08F124018022B8F8EA
:105918000660284603F0CDF92846214603F021FA0F
:10592800C0B2082840F0948007A803F0CBF980287B
:1059380000F2DE800021B04238BF0646C8E92B16C7
:1059480010E1B8F80000042840F082800DF11C092D
:1059580008F124018022B8F806A0484603F0A9F906
:105968004846214603F097FAC0B2082870D186B19C
:1059780005EBC60607ACD5E90001CA682146904781
:10598800C0B2082864D1204603F0EDFA0835B542C4
:10599800F1D107AC204603F0E9FA204603F092F96A
:1059A800802800F2CA80D7E0C8B2032854D8DFE8BC
:1059B80000F002676B93B8F80000042848D107ACE0
:1059C80008F124018022B8F80650204603F071F946
:1059D80040F2094004AAADF8100020460321022332
:1059E80003F072F9C0B2082832D107A803F06AF9A7
:1059F800802800F2A2800021A84238BF0546C8E9E5
:105A08002B15AFE0B8F80000042821D10DF11C09CE
:105A180008F124018022B8F806A0484603F049F9A5
:105A280004AC4946204603F053FC204603F054FCDE
:105A3800C0B208280CD104ACF600002E75D0F5E8E9
:105A480002010A6921469047083EC0B20828F4D0EE
:105A58000FB0BDE8000FF0BD084603F029F9BDF806
:105A680006A08146F600EEB3F5E8020152464B69FE
:105A780049469847083E0028F5D004468B460AE078
:105A8800201D24682CB92DE004F10C00083424688A
:105A980044B3D0F800B0B8F800000428D8D107AD56
:105AA80008F124018022B8F80690284603F001F98D
:105AB800284621465A4603F04AFBC0B20828C7D1F7
:105AC80007A803F0FFF8802837D80021484538BFD9
:105AD8008146C8E92B1945E004F114001034246804
:105AE800002CD6D1B8F8000000F00D000428AFD182
:105AF800D8F80C000921A8F800100068BFF35F8FE0
:105B0800D0B398F81210012202F0BCFFD8F81800A0
:105B18000068BFF35F8F78B398F81E10012202F077
:105B2800B1FF0FB0BDE8000FF0BD04A803F0ACFC56
:105B380007A803F0C7F880280ED90920444624F89E
:105B4800180B08F10C0000F073FB204600F070FB06
:105B58000FB0BDE8000FF0BD0021504538BF8246A8
:105B6800C8E92B1A0120A8F800004046FFF77CFC82
:105B78000FB0BDE8000FF0BD4AF298204AF21C327F
:105B8800C2F22200C2F22202222103F01DFEFEDE32
:105B9800F0B503AF2DE9000F8DB0D0F8DC40064614
:105BA80008A889469046214603F021F896F8E200B5
:105BB800BDF82050032816D1002D4FF0000018BF63
:105BC800032D03D10DB0BDE8000FF0BD204603F052
:105BD8000DF896F8E300042800F08981042186F87E
:105BE800E20086F8E310DFE805F0210326492100EA
:105BF800D6F8DC0002F045FD00204FF48061B8F1D2
:105C0800000F86F8E40086F8E000A6F8E21030807D
:105C18000CD009EBC804A9F1080555F8080F696804
:105C28008969884705F10800A042F6D100200DB027
:105C3800BDE8000FF0BDBDF82200BDF82410BDF886
:105C480026200590084340EA020B079106925FEA76
:105C5800CB70CDF8108000F0C1800798C00740D005
:105C68003088013807282ED8DFE800F00418272DDF
:105C78002D2D2D393046FFF7F7FB32E0D6F8DC0042
:105C880002F0B4FF96F8E20086F8E300032086F8F5
:105C9800E20000200DB0BDE8000FF0BD4AF241025D
:105CA80006F118010AA8C2F22202002300F0F2FA53
:105CB8009DF82800A8B9032012E006F10C0000F0B6
:105CC800D0FA05200CE00920344624F8180B06F118
:105CD8000C0000F0ADFA204600F0AAFA01E000201E
:105CE80030800698C00709D10598C00774D00AA863
:105CF8003146FFF721FB9DF8310059E0354655F84C
:105D08000C0F0168BFF35F8F002900F0FC8005F1DC
:105D180018048020B27C00900AA8234602F0FBFDFC
:105D28009DF8280018B19DF8290060B954E00B9A35
:105D3800812A80F0F4800AA8214602F098FF9DF895
:105D48003100042809D1092026F8180B284600F04C
:105D58006FFA304600F06CFA3EE09DF82E00029093
:105D6800BDF82C0003902846BDF830A09DF82F8080
:105D78000A9C00F076FAB8F1000F00F08F80029AC2
:105D880004200399A6F80AA086F809803272F180E7
:105D9800C6F802403080ADF830A08DF82F808DF81D
:105DA8002E20ADF82C100A944FEA1A20DDF8108046
:105DB800042811D09DF82F0040B180280CD10AABDF
:105DC800304649464246FFF7D9FB05E00AAB304664
:105DD80049464246FFF7A8FC2BF0010BBBF1000F28
:105DE800CDF80C9045D00499002952D0039801268B
:105DF8004FF0020800EBC10AA0F1080906984C46CA
:105E080018EA000F0AD054F8080F61688A6A314608
:105E1800904704F108005045F5D10EE005984C462E
:105E280018EA000F09D054F8080F6168CA6A3146A9
:105E3800904704F108005045F5D1079818EA000F7B
:105E48000CD066F07F044D4655F8080F69680A6B58
:105E58002146904705F108005045F5D12BEA080B7B
:105E68005FEA0B4005D0701C0F2E4FEA4808064623
:105E7800C4D3049969B1039800EBC104A0F10805E3
:105E880055F8080F6968C969884705F10800A042F4
:105E9800F6D101200DB0BDE8000FF0BDDDE902121A
:105EA800BAB1802A3FF64FAF0020A6F80AA0C6E98B
:105EB8002B022BF0010B707207203172F280C6F8AA
:105EC80002403080BBF1000FCDF80C907FF48BAF0F
:105ED800CFE70620ADF830A030800020C6F8B0002B
:105EE8008DF82F008DF82E10ADF82C005BE74AF2E4
:105EF800D4004AF25012C2F22200C2F222021C213D
:105F080003F093FBFEDE4AF298204AF21C32C2F2FA
:105F18002200C2F22202222103F056FCFEDE4AF2DF
:105F2800B4031046C2F2220380211A4604F06BFA29
:105F3800FEDEF0B503AF4DF804BD82B00022802923
:105F4800019203D28DF80410012434E0B1F5006FFA
:105F580009D202240A4664F39F128DF80520C02254
:105F680042EA911125E002220B4662F39F13B1F534
:105F7800803F0DD28DF806308B0962F39F13E02223
:105F880042EA11318DF805308DF80410032412E02F
:105F98008DF807308B0962F39F138DF806300B0BD1
:105FA800042462F39F13890C1E228DF8053062F3D6
:105FB800DF018DF80410066803F0B2FA0546B068F0
:105FC800B8B94FF0FF3006F10C02B06001A82146C5
:105FD800FFF7C6F80446B0680130B060284603F001
:105FE800AAFAE0B2033818BF012002B05DF804BB7A
:105FF800F0BD4AF20420C2F2220003F0E0FAFEDE0D
:106008000A464AF26011C2F2220103F0F5BD704758
:10601800F0B503AF2DE9000748F26C12D1F8008003
:10602800C2F200021368B8EB030218BF01229845B8
:1060380038BF4FF0FF32531C1CBFD2B2002A29D1FF
:1060480042685AB300680024D1E9019A02EB420180
:10605800061D8D0005E00C3D06F10C0604F1010457
:1060680018D030688245F6D156F8040C4946524695
:1060780004F0DCFF0028EED1706800218045A0F113
:106088000600B0FA80F098BF012140090843BDE836
:106098000007F0BD0020BDE80007F0BD0120BDE805
:1060A8000007F0BDF0B503AF2DE9000F93B00190E4
:1060B80048F26C10C2F200008A46D1F820900168BC
:1060C800B9EB010018BF0120894538BF4FF0FF30F8
:1060D800411C1CBFC0B2002824D10199DAF828500D
:1060E800486818B3096800EB4000DAF824B04FF0AC
:1060F80000080C1D860005E00C3E04F10C0408F1B4
:1061080001080FD020688542F6D154F8040C59468E
:106118002A4604F08BFF0028EED16068062818BFD5
:10612800814505D913B0BDE8000FF0BDDAF824B0F9
:1061380001984AF260110290002007900420049010
:106148004AF28010C2F2220003AA039003200690AC
:1061580009A8059044F22900C0F20000C2F2220109
:106168000E9012A80D9044F21F00C0F20000CDF866
:106178003C900C9010A80B9044F2CB30C0F2000079
:10618800CDE910B50A900FA809900AF12C001290D9
:1061980002A803F031FD13B0BDE8000FF0BD704751
:1061A800F0B503AF4DF8048D15460E46046803F0AC
:1061B800B7F98046A068B0B94FF0FF3004F10C027F
:1061C800A06030462946FEF7CBFF0546A06801309F
:1061D800A060404603F0AFF9E8B2033818BF0120C9
:1061E8005DF8048BF0BD4AF20420C2F2220003F0ED
:1061F800E6F9FEDED0B502AF45F21C520C46D1E9F5
:106208000113C2F200024FF0000CD06082E80A10BD
:106218004AF21421C2F22201104600F040FA002886
:1062280001BF216848F26C12C2F200021160D0BDB1
:1062380001680A68BFF35F8F002A1FBF8179104683
:10624800012202F01FBC80B56F464AF298204AF23C
:106258001C32C2F22200C2F22202222103F0B4FA56
:10626800FEDE01680A68BFF35F8F002A1FBF8179CD
:106278001046002202F006BC80B56F464AF298200C
:106288004AF21C32C2F22200C2F22202222103F098
:106298009BFAFEDE80B56F4682B094460A460968CE
:1062A8000968BFF35F8F31B192790093634602F0BA
:1062B8007BFA02B080BD4AF298204AF21C32C2F240
:1062C8002200C2F22202222103F07EFAFEDE0A46F2
:1062D800D0E9000104F071B8006803F088BC704789
:1062E8004AF22C320021C2F222020523C0E9003210
:1062F80081607047F0B503AF2DE9000784B04AF21A
:106308002C3048F2301948F2480AC2F222000390B1
:10631800C2F2000909F10800C2F2000A02A90290BB
:1063280050460122FFF734FCDAF8DC50804695F835
:106338003400E0B12868002840F075814FF0FF3143
:10634800284640F8201B002100F03BFECDE9020161
:1063580002A800F088FE78B302AE304600F093FE43
:10636800304600F080FE0028F7D1012429E003F030
:10637800F1F8064603F0E4F803F0F8F82868002876
:1063880040F051814FF0FF31284640F8201B002192
:1063980000F017FECDE9020102A800F064FE002813
:1063A8003FD002AC204600F06EFE204600F05BFEB7
:1063B8000028F7D1012439E002A800F012FE80F08D
:1063C80001042868013028609AF8E21099F8000062
:1063D800022938D100287CD1DAF8DC0002F066F80E
:1063E800DAF8DC6096F8340000284AD030680028D3
:1063F80040F019814FF0FF31304640F8201B002152
:1064080000F0DFFDCDE9020102A800F060FE0028DF
:106418001CBF0DF1080000F0D8FD30680130306075
:1064280054E002A800F0DDFD80F001042868013086
:106438002860F00708BF03F085F89AF8E21099F889
:1064480000000229C6D0002800F08B80DAF8DC5062
:1064580095F83400002866D02868002840F0E380CA
:106468004FF0FF300021286005F1200000F0A9FD61
:10647800CDE9020102A800F0BEFD286801302860BD
:106488006FE003F067F8054603F05AF803F06EF87A
:106498003068002840F0C7804FF0FF31304640F8A0
:1064A800201B002100F08DFDCDE9020102A800F0BB
:1064B8000EFE00281CBF0DF1080000F086FD3068B4
:1064C80001303060E80708BF03F03CF8012089F884
:1064D8000000D9F81C000168BFF35F8F002900F0A5
:1064E800A980002099F822204AF22C33009002A8B3
:1064F800C2F2220344EA080402F00DFA7CB1D9F88A
:1065080004000122BFF35F8F00F58264D4E84F1FB7
:10651800C4E8432F002BF9D1BFF35F8F41B304B018
:10652800BDE80007F0BD03F015F8044603F008F8CD
:1065380003F01CF82868002875D14FF0FF300021BF
:10654800286005F1200000F03CFDCDE9020102A819
:1065580000F051FD286801302860E00708BF02F00C
:10656800F1FF002089F8000004B0BDE80007F0BD85
:10657800D0F80014BFF35F8FD0F80824BFF35F8F03
:10658800D0F8043400F20445BFF35F8F934205D17D
:1065980099423EBFBFF35F8F00232B60994228BF0B
:1065A8000A469A4237D0D9F828100968BFF35F8F96
:1065B80000293FD0A2EB030899F82E20034402A833
:1065C8004646B8F1400F28BF4026009602F0ECF886
:1065D8009DF8080068B12078BFF35F8F00289ED02F
:1065E800BFF35F8F55E8000F45E800010029F9D196
:1065F80011E003982178BFF35F8F00298FD0804581
:1066080038BF4046BFF35F8F55E8001F014445E897
:106618000012002AF8D10020BFF35F8F207004B069
:10662800BDE80007F0BD4AF28820C2F2220002F05D
:10663800C6FFFEDE4AF298204AF21C32C2F222005D
:10664800C2F22202222103F0BFF8FEDE70474FF4A7
:106658007A607047C1B2032928BF00207047C1B2D1
:10666800052928BF002070470821818000218171F9
:106678004FF4FA5101607047704700684AF28C3253
:10668800C2F222020B4652F8301002EBC0004268F8
:10669800184603F0FBBC002070477047704780B570
:1066A8006F4648F2681EC2F2000E5EE8003F53B91A
:1066B8004FF0010CBFF35F8F4EE800C22AB15EE8CD
:1066C800003F002BF8D0BFF32F8FBFF35F8F13B1BC
:1066D800012B1ED02AE044F2C822C2F20002C2E90D
:1066E80000010220BFF35F8FCEF800000020BFF347
:1066F8005F8F80BD10BFDEF80000BFF35F8F0128F9
:1067080001BF10BFDEF80000BFF35F8F01280DD175
:1067180010BFDEF80000BFF35F8F012801BF10BF74
:10672800DEF80000BFF35F8F0128E3D0012080BDB1
:10673800F0B503AF2DE9000F91B0002B3ED102F167
:10674800100BD2E9009AD2E9026348F26812C2F249
:1067580000029BE83008D2F800E044F2C822BFF3F8
:106768005F8FC2F20002D2E900C808AACDE903632C
:106778000026CDE90645BEF1020F82E8020690E840
:106788003E00406910900BA83EC04FF001006946DA
:1067980000904AF26030C2F222000596CDE901B6B7
:1067A80008BF404602694AF26030C2F2220008BFC0
:1067B8006046904711B0BDE8000FF0BD4AF21040A6
:1067C8004AF26842C2F22200C2F22202552102F0C5
:1067D800FBFFFEDE80B56F4600684FF400514FF4B2
:1067E80080524FF0400C4FF4803E00E04161036955
:1067F8009B04FBD50369DB0401D44261F7E7036915
:10680800B3F1FF3FF3DC0369DB0306D403695B06DE
:1068180048BF80BDC0F814C0E9E7C0F818E0E6E753
:106828000378D1F800C0DFE803F004070A0D10135D
:1068380016190CF1680C13E00CF16C0C10E00CF15B
:10684800700C0DE00CF1740C0AE00CF1780C07E008
:106858000CF17C0C04E00CF1800C01E00CF1840CD0
:1068680040780321DCF800304000C0B2824001FAD1
:1068780000F023EA00001043CCF800007047F0B5A0
:1068880003AF2DE9000B44F2E043C4F21F031B6879
:10689800C3F30B2E4FEA135CE6451FBF0124C1F872
:1068A8008841DBB24FF47A781FBF03FB08F9ACEBE1
:1068B8000E04D1F8906149F658651FBFCFF6FF75F1
:1068C80013FB085393FBF4F3C2EA06021FBFC1F897
:1068D800902180E80A40C0F80C90BDE8000B18BF72
:1068E800F0BD4AF200504AF2E442C2F22200C2F27B
:1068F8002202192102F068FFFEDE00680A464AF209
:10690800BE514AF2BC53C2F22201C2F222030078FD
:10691800002810464FF0020208BF194603F0EDBCEC
:106928007047A1F1080240F6F87392B29A4221BF6B
:10693800022202710260704700220139C0F8062065
:10694800818082720260704780B56F46C1B1814212
:1069580022D8B0FBF1F3B0FBF3F0884288BF0133D3
:10696800981E38BF0020FF2828BFFF2000F0FE0136
:1069780040EAC11040F0F85040F4F810106480BDAF
:106988004AF290504AF27C52C2F22200C2F222022B
:10699800192102F019FFFEDE4AF290504AF2AC5279
:1069A800C2F22200C2F22202192102F00DFFFEDE1D
:1069B80040F22762914238BF0A46B2F5487F98BF35
:1069C8004FF44872A2F5487144F2AF7300688AB276
:1069D8005A43C368A1EB124189B2490801EB12413D
:1069E80023F01F0242EA1111C16004E00168B1F10D
:1069F800FF3FD8BF70470168002905D40168002906
:106A08005CBF01680029F1D57047D4D40278023AF6
:106A1800D3B2042B28BF0122D2B2DFE802F0021D54
:106A28000B144AF2C0520846C2F222021146092249
:106A380003F063BC40F258320846C2F22002114605
:106A4800042203F05ABC4AF2DC520846C2F222027F
:106A58001146062203F051BC80B56F4682B040F261
:106A68005C3201904AF2CC50C2F22002C2F22200FB
:106A780001AB009008461146042203F04AFC02B01C
:106A880080BD022070470F207047B0B502AF0546A1
:106A980008680C4640F480300860086840F0400000
:106AA8000860222063F31340486040F26850C0F247
:106AB8000C10086240F29510C0F2B2004862DC2067
:106AC800C0F27A0088627D20C0F25800C8624B206C
:106AD800C0F2400008632F20C0F22E00486388638C
:106AE80046F62010C86040F6A31088604FF4C840EE
:106AF800C8614FF4C860886140F6C410C0F6804091
:106B080008613F204861086820F0030010430860CE
:106B1800086820F480300860C86F4021281D04F000
:106B2800AFF810202C606864B0BD00F1340200F1A9
:106B3800500110467047006803E0816C002908BFC7
:106B48007047816C29B1816C00291CBF816C0029B8
:106B5800F3D170470068426D22F00302114341658A
:106B68007047F0B503AF2DE90007ADF5047D6D461C
:106B7800804628464FF4007104F082F844F2D02988
:106B8800A5F11006C2F200090DF5007A00244D4661
:106B9800D9E96001CDE9820150468194809502F0DF
:106BA80098FC80AB01340C35202C0FCB46F8100F25
:106BB80006F104000EC0EBD1694640464FF400725E
:106BC80004F036FA0DF5047DBDE80007F0BD704706
:106BD80000204FF0FF31704720F4006041F400615D
:106BE80010437047F0B503AF2DE9000F85B0C168B9
:106BF80000291CBFD0E904138B4271D102AE844630
:106C08004ACE4CF8101F0168C0E90536002950D05B
:106C1800D0E90191894501914BD200F118044FF058
:106C2800010E4FF0000B02E001998A4541D0022184
:106C380009F1010A416149F080015FFA89F3D146FF
:106C480043EA012101830021C0F80CE0C0F804A048
:106C580005E0C2E900EBD0E904138B42E4D04B1CF9
:106C68000361615CC56A4B0043EAD111D5F8048021
:106C7800CBB29845EDD9AE6901F00F013668BFF384
:106C88005F8FB6B226FA01F1C907E2D06969994265
:106C980040F28980296903EB8303C2E900EB01EB29
:106CA80083010B7C5B06D6D0084605B0BDE8000F13
:106CB800F0BD02AE0025C5604ACE8CE84A00C16925
:106CC80000291CBFD0E908138B423BD102AE00213A
:106CD8001C304CCE4EC0084605B0BDE8000FF0BDD4
:106CE80000F118064FF0000C4FF0010E06E0C2E963
:106CF80000ECD0E904138B423FF480AF4B1C0361D6
:106D0800715CC56A4B0043EAD1116C68CBB29C42F6
:106D1800EDD9AC6901F00F012468BFF35F8FA4B20D
:106D280024FA01F1C907E2D0696999423BD9296976
:106D380003EB8303C2E900EC01EB83010B7C5B06E8
:106D4800D7D0B1E700F128064FF0000C4FF0010E44
:106D580005E0C2E900ECD0E908138B42B6D04B1C21
:106D68000362715CC56A4B0043EAD1116C68CBB20F
:106D78009C42EED9AC6901F00F012468BFF35F8F24
:106D8800A4B224FA01F1C907E3D0696999420AD982
:106D9800296903EB8303C2E900EC01EB83010B7C57
:106DA8005B06D8D080E74AF218721846C2F222026F
:106DB80002F021FDFEDE01447047F0B503AF4DF847
:106DC800048D82B005468846EE680121006831606E
:106DD8007168F26162F31E417160CAB1B06040F639
:106DE800FF71B068884300F58050F060F0686FF379
:106DF8000B0000F58050306130696FF30B0000F52F
:106E08008050706170696FF30B0000F5805004E0EA
:106E18000020B060F06030617061B06180217068FE
:106E280040F400407060706861F30700706000967D
:106E380002F08AFB4EF670746846CEF2000420F029
:106E48001C00206002F080FB02F081FBA8688660CD
:106E5800C16821F0FF01C160019002F075FB01A833
:106E680020F01C0020602030206002F06DFB02F052
:106E78006EFB95F910204FF47F01D8F800004FF40D
:106E88008033B2F1FF3F02F01F02C8BFFF21C8BF25
:106E9800012303FA02F21140C0F8B011D0F8B01182
:106EA80059B1D0F8B01100291CBFD0F8B011002991
:106EB80003D0D0F8B0110029F0D102B05DF8048BEE
:106EC800F0BDF0B503AF2DE9000B84464668C8B2A3
:106ED8004D0045EAD014E0B2864217D9DCF8189084
:106EE80004F00F04D7F80880012606FA04FEBFF361
:106EF8005F8F59E8006F46EA0E0449E80045002D07
:106F0800F7D116EA0E0FBFF35F8F03D00020BDE85C
:106F1800000BF0BDDCF80CE0864542D9DCF814E043
:106F2800864546D9DCF800601D46B3F5806F06EB50
:106F38008014266846F000562660266828BF4FF45D
:106F480080656FF31A4646EA0546266026685FEABA
:106F58000865DCF808E026F40049DCF810C04EB2F9
:106F68004D4608BF05F50045B6F1FF3FD8BF4D4671
:106F78002560450101264EF805600EEB401600EB32
:106F88008000756825F0FF0575604CF820200CEB33
:106F980080000174011D80F8118058C1BDE8000B04
:106FA800F0BD4AF22872C2F22202714602F023FCB6
:106FB800FEDE4AF23872C2F22202714602F01BFC6F
:106FC800FEDE0246084611467047D0E900018C22D1
:106FD8000968002808BF8422885840F0004088507B
:106FE8007047D0E900018C220968002808BF842274
:106FF8008858C00F7047D0E900018C220968002822
:1070080008BF8422885820F0004088507047D0E993
:1070180000018C220968002808BF8422885840F0A3
:10702800804088507047D0E900028C2312680028FD
:1070380008BF8423D05820F0807040EA0160D05007
:107048007047D0E900028823002808BF80236FF02A
:107058007F401268814238BF0846012898BF012046
:107068000138D0507047D0E900014FF0007209682C
:107078000028D1F8441108BF4FF0807211EA0200CD
:1070880018BF01207047D0E900014FF0007209686D
:10709800002808BF4FF08072C1F844217047D0E93A
:1070A80000024FF000731268002808BF4FF0807389
:1070B8006FF00070D2F848C108BF6FF080700029E7
:1070C80000EA0C0018BF1843C2F848017047D0E91D
:1070D80000014FF0007209680028D1F8481108BF74
:1070E8004FF0807211EA020018BF0120704780B586
:1070F8006F46D0E9072E4FF0004C4FF08043CEF892
:1071080034C0CEF838C0CEF838300023CEF800307E
:107118000223C2F84031D2F840319B070CD5D2F88F
:1071280040319B0744BFD2F840315FEA837303D5EF
:10713800D2F840319B07EED44FF0000C0A23C2F876
:1071480040C10029C2F8A831D2F8843123F08073F5
:1071580008BF03F18073C2F88431D2F84411006883
:10716800C2F84411C2F848C1C2F8580180BD0246AD
:107178004368C8B2490041EAD011C8B2834218D95D
:10718800936901F00F011B68BFF35F8F9BB223FA6D
:1071980001F1C9070DD05169814284BF01207047B0
:1071A80080B56F464AF20872C2F2220202F023FB4F
:1071B800FEDE00207047F0B503AF2DE9000F83B065
:1071C8008046486800281FBF88690068BFF35F8F42
:1071D8005FEAC0700BD14AF248704AF2D072C2F22C
:1071E8002200C2F222022B2102F0EEFAFEDE4869EA
:1071F800002800F015819A4651F81C3F0125BAF184
:10720800080F51F80C0CD3F8AC6190F9104004F059
:107218001F0C05FA0CF56ED32E406CD0D0F808C0C0
:10722800C3F8AC51D3F8405145F40055C3F8405168
:10723800DCE90A45D3F84061B60425D4D3F84061A7
:1072480046F40056C3F84061DCE90A45D3F84061CA
:10725800B6045FBFD3F8406146F40056C3F84061F6
:10726800DCE90A455CBFD3F840615FEA86460BD487
:10727800D3F8406146F40056C3F84061DCE90A459A
:10728800D3F84061B604CDD5D3F8406126F4005652
:10729800C3F8406190F910C0D3F8B8615560BCF1EB
:1072A800000F14600CF01F024FF0010548BF360CA8
:1072B80095402E40360614D14FF48036BCF1FF3F7E
:1072C800C8BF01264FF47F0506FA02F2C8BFFF25A2
:1072D8002A40C3F8782182681268C2F30A42FFF78D
:1072E8006CFD0820C8F80400002088F8000003B0EE
:1072F800BDE8000FF0BDC668766816F0680F01D0CB
:10730800072008E0D3F8B861002C48BF360C2E409F
:10731800360609D0002088F80100012088F800000E
:1073280003B0BDE8000FF0BD4FF480354FF47F0681
:10733800B4F1FF3FC8BF0125C8BFFF2605FA0CF509
:107348002E40C3F8BC6190F910604FF4803E4FF4B2
:107358007F04B6F1FF3F06F01F06C4BFFF244FF0BD
:10736800010E0EFA06F62640C3F87861C668D0E921
:10737800013CDCF800507468F669C5F30A455545C8
:1073880038BFAA46C4F30E45761BB24528BFB2469D
:107398009A4528BF9A46BAF1000F38D0D0F800B005
:1073A8000AF00306BAF1040F01D2002420E0CDE967
:1073B800016C40F2FC740AEA040902F1010C002491
:1073C8000BEB04031BF804500CEB040693F801E0E4
:1073D8000CF804E00434A14593F802E006F8015CD7
:1073E80086F801E0DB78B370EAD1DDE9016CA344EB
:1073F8006EB19BF80030012E135508D022449BF83B
:107408000130022E53701CBF9BF802309370DCF8D9
:107418000020C2F30A42FFF7D0FCC8F804A063E7D3
:107428004AF218720020C2F22202002102F0E3F9A7
:10743800FEDEF0B503AF2DE9000F83B08346486840
:107448000228C0F02C81886988460068BFF35F8FE6
:10745800800740F12481D8F81410012940F20E81E8
:10746800D8F81060316A496811F0680F01D0072018
:1074780014E09A4696F824304046012150F81CCF73
:107488005DB203F01F03002DDCF8B84101FA03F1E7
:1074980048BF240C2140090609D000208BF80100C0
:1074A80001208BF8000003B0BDE8000FF0BD4FF4D9
:1074B80080310290B5F1FF3FC8BF01214FF47F052D
:1074C80001FA03F1C8BFFF252940CCF8781106F16D
:1074D8001400F369D6E905911B68C3F30A435345C1
:1074E80038BF9A468A4528BF8A46BAF1000F5CD051
:1074F8000AF0030CBAF1040F019002D200214B46A6
:1075080017E040F2FC700AEA000E501C00214618F1
:10751800445C16F8015C7378B67809F8015009EBF9
:10752800010504318E456C70AB70EE70EFD109EB3C
:107538000103BCF1000F0CD0505CBCF1010F1870B6
:1075480007D08818BCF1020F417859701CBF8078A9
:107558009870AAF10100012101EB501505F0030410
:1075680001F0F2FF4EF6707029F01F01CEF2000014
:10757800BAF1610F0FD325F0030201F12003016076
:10758800036001F14003036001F16003043A01F173
:1075980080010360F1D1002C1CBF0160012C65D172
:1075A80001F0D2FF01F0D3FF0198029C5246214618
:1075B800FFF703FCD8F8040000281FBFD8F818000C
:1075C8000068BFF35F8F5FEAC0700BD14AF2487062
:1075D8004AF2F072C2F22200C2F222022B2102F019
:1075E800F3F8FEDED8F8140000284FD0D8F81000C1
:1075F8000125D8F81CC0027CDCF8B86153B202F04F
:107608001F02002B48BF360C95402E40360624D169
:10761800B3F1FF3F4FF480332146C8BF01234FF435
:107628007F0403FA02F2C8BFFF242240CCF8BC2131
:107638004FF4803690F910204FF47F05B2F1FF3FE8
:1076480002F01F02C4BFFF25012606FA02F22A40F3
:10765800CCF878210022FFF7B0FB0020CBF804A07B
:107668008BF8000003B0BDE8000FF0BD01F1200267
:107678000260022C1CBF4031016091E74AF2187287
:107688000120C2F2220202F0B6F8FEDE4AF21872B7
:107698000020C2F22202002102F0ADF8FEDE4AF21A
:1076A80048704AF2E072C2F22200C2F222022B2192
:1076B80002F08AF8FEDEF0B503AF2DE9000F83B0C3
:1076C8008146387A98460B464E68410041EAD01107
:1076D800C8B2864240F2C5809E6901F00F01366843
:1076E800BFF35F8FB6B226FA01F1C90700F0B9807F
:1076F8005969814240F2AE80196900EB800001EBC4
:107708008000C168496811F0680F01D0072012E0B5
:107718001946057C51F81CCF05F01F0E6CB20125E7
