:0200000460009A
:100000004643464200000156000000000101020084
:1000100000000000000000000000000000000000E0
:1000200000000000000000000000000000000000D0
:1000300000000000000000000000000000000000C0
:1000400000000000010403000000000000000000A8
:100050000000200000000000000000000000000080
:100060000000000000000000000000000000000090
:100070000000000000000000000000000000000080
:10008000EB04180A063204260000000000000000FD
:10009000050404240000000000000000000000002F
:1000A0000000000000000000000000000000000050
:1000B0000604000000000000000000000000000036
:1000C0000000000000000000000000000000000030
:1000D00020041808000000000000000000000000DC
:1000E0000000000000000000000000000000000010
:1000F0000000000000000000000000000000000000
:1001000000000000000000000000000000000000EF
:100110000204180804200000000000000000000095
:1001200000000000000000000000000000000000CF
:10013000600400000000000000000000000000005B
:1001400000000000000000000000000000000000AF
:10015000000000000000000000000000000000009F
:10016000000000000000000000000000000000008F
:10017000000000000000000000000000000000007F
:10018000000000000000000000000000000000006F
:10019000000000000000000000000000000000005F
:1001A000000000000000000000000000000000004F
:1001B000000000000000000000000000000000003F
:1001C000000100000010000001000000000000001D
:1001D000000000000000000000000000000000001F
:1001E000000000000000000000000000000000000F
:1001F00000000000000000000000000000000000FF
:10020000D4D4D4D4D4D4D4D4D4D4D4D4D4D4D4D4AE
:10100000D10020400020006000000000000000002F
:1010100020100060001000600000000000000000D0
:1010200000000060C4CC040000000000EFBEADDE94
:10103000124880F3088812481249016000F036F81F
:10104000114812490022814201D004C0FBE7104838
:101050001049114A814202D008CA08C0FAE70F4875
:101060004FF47001026842EA01020260BFF34F8F41
:10107000BFF36F8F00F014F800DE00000040002086
:1010800008ED00E0004000200050002074810020A6
:10109000B842002058440020CCCC046088ED00E029
:1010A00043F2B93CC0F2000C6047D4D41C4840F273
:1010B000924188420CBF1B4A1B4A1C4B5360136869
:1010C00023F0800313601A481A4901BF1A480A0C1A
:1010D0008264C1F30F014164016C41F004010164B9
:1010E0001648174A824205D01649814202D008CAE2
:1010F00008C0FAE71448154A824205D014498142D3
:1011000002D008CA08C0FAE71248134A824205D042
:101110001249814202D008CA08C0FAE770470000AD
:10112000240400000080034000C00B4020C528D9E3
:1011300000C00A40AAAAFAFF00400E4000000000CA
:10114000B822006030CA010000400020002000608A
:10115000B842002000002020F0EC0160DCDF2220FB
:10116000D4D4D4D4D4D4D4D4D4D4D4D4D4D4D4D43F
:10117000D4D4D4D4D4D4D4D4D4D4D4D4D4D4D4D42F
:10118000D4D4D4D4D4D4D4D4D4D4D4D4D4D4D4D41F
:10119000D4D4D4D4D4D4D4D4D4D4D4D4D4D4D4D40F
:1020000000400020311000606BBD00000FCA0100CD
:102010006BBD00006BBD00006BBD00000000000048
:102020000000000000000000000000006BBD000088
:102030006BBD0000000000006BBD0000FF3300001E
:102040006BBD00006BBD00006BBD00006BBD0000F0
:102050006BBD00006BBD00006BBD00006BBD0000E0
:102060006BBD00006BBD00006BBD00006BBD0000D0
:102070006BBD00006BBD00006BBD00006BBD0000C0
:102080006BBD000000000000000000000000000028
:102090006BBD00006BBD00006BBD00006BBD0000A0
:1020A0006BBD00006BBD00006BBD00006BBD000090
:1020B0006BBD00006BBD00006BBD00006BBD000080
:1020C0006BBD00006BBD00006BBD00006BBD000070
:1020D0006BBD00006BBD00006BBD00006BBD000060
:1020E0006BBD00006BBD00006BBD00006BBD000050
:1020F0006BBD00006BBD00006BBD00006BBD000040
:102100006BBD00006BBD00006BBD00006BBD00002F
:10211000000000006BBD0000000000006BBD00006F
:102120006BBD00006BBD00006BBD00006BBD00000F
:102130006BBD00006BBD0000000000006BBD000027
:102140006BBD00006BBD00006BBD00006BBD0000EF
:102150006BBD00006BBD000000000000000000002F
:102160006BBD00006BBD00006BBD00006BBD0000CF
:102170006BBD00006BBD00006BBD00006BBD0000BF
:102180006BBD00006BBD00006BBD00006BBD0000AF
:102190006BBD00006BBD00006BBD00006BBD00009F
:1021A0006BBD00006BBD00006BBD00006BBD00008F
:1021B0006BBD00006BBD00006BBD00006BBD00007F
:1021C0006BBD00006BBD00006BBD00000000000097
:1021D0006BBD00009F3300006BBD00006BBD0000B5
:1021E0006BBD00006BBD00006BBD00006BBD00004F
:1021F0006BBD00006BBD00006BBD00006BBD00003F
:102200006BBD000099BC00006BBD00006BBD000001
:102210006BBD00006BBD00006BBD00006BBD00001E
:102220006BBD00006BBD00006BBD00006BBD00000E
:102230006BBD00006BBD00006BBD00000000000026
:10224000000000006BBD00006BBD00006BBD000016
:102250006BBD00006BBD00006BBD00006BBD0000DE
:102260006BBD00006BBD00006BBD00006BBD0000CE
:102270006BBD00006BBD00006BBD00006BBD0000BE
:102280006BBD00006BBD00006BBD00006BBD0000AE
:102290006BBD00006BBD00006BBD00006BBD00009E
:1022A0006BBD00006BBD00006BBD000000000000B6
:0822B0006BBD00006BBD0000D6
:1022B80080B56F4692B00190029102A8009006F096
:1022C8007EFA00F5C6700E904FF4704127F80A1C8C
:1022D80010901AF046FD009806F071FA00F5C770E4
:1022E8000C900F2127F8121C11901AF03AFD009952
:1022F80003A802F010FF0199029807900398049A26
:10230800059BDDF818C0CDF82CC00A9309920890F7
:10231800079808600898099A0A9BDDF82CC0C1F84C
:1023280010C0CB608A60486012B080BD80B56F462F
:1023380092B00190029102A8009006F068FA00F5A8
:10234800C6700E904FF4704127F80A1C10901AF0CE
:1023580008FD009806F05BFA00F5C7700C900F2195
:1023680027F8121C11901AF0FCFC009903A802F03F
:10237800A9FE0199029807900398049A059BDDF835
:1023880018C0CDF82CC00A930992089007980860E5
:102398000898099A0A9BDDF82CC0C1F810C0CB60D8
:1023A8008A60486012B080BD80B56F4692B00190D7
:1023B800029102A8009006F0E2F900F5C6700E90AE
:1023C8004FF4704127F80A1C10901AF0CAFC0098C4
:1023D80006F0D5F900F5C7700C900F2127F8121CEC
:1023E80011901AF0BEFC009903A802F042FE019970
:1023F800029807900398049A059BDDF818C0CDF859
:102408002CC00A9309920890079808600898099ABE
:102418000A9BDDF82CC0C1F810C0CB608A60486008
:1024280012B080BD80B56F4692B00190029102A8AB
:10243800009006F0E4F900F5C6700E904FF4704174
:1024480027F80A1C10901AF08CFC009806F0D7F9AF
:1024580000F5C7700C900F2127F8121C11901AF084
:1024680080FC009903A802F0DBFD0199029807900F
:102478000398049A059BDDF818C0CDF82CC00A9380
:1024880009920890079808600898099A0A9BDDF84D
:102498002CC0C1F810C0CB608A60486012B080BD03
:1024A80080B56F468CB009900A9100F03AF8029115
:1024B80001900198012804D1FFE702980B900CB015
:1024C80080BD40F21401C2F2200103A8009001224D
:1024D80002F0A9FE009840F27801C2F220011AF039
:1024E8001CFEFEDE80B56F4684B00290039100F0BA
:1024F8007CF807F8090C17F8090C022805D0FFE743
:1025080017F8090C022804D3FFE7002007F80A0C83
:1025180003E0012007F80A0CFFE717F80A0C04B0DB
:1025280080BD80B56F468EB0019002910790012062
:1025380060B9FFE702A805F045FB012103F0BEF8EA
:1025480006910590059801280ED01AE002A805F01A
:1025580039FB014601980A900B91084406F0CEFD1C
:102568000490012003900FE00198069908910991C1
:102578000C900D91084406F0C1FD049001200390D1
:1025880002E000200390FFE7039804990EB080BD95
:1025980089B0019102900490059188420BD0FFE721
:1025A8000298019907900891401A014600910690F7
:1025B80000280AD403E000208DF80F0011E00098ED
:1025C8006FF00041884208D303E0FF208DF80F0028
:1025D80007E000208DF80F0003E001208DF80F00C0
:1025E800FFE79DF80F0009B0704780B56F4684B0CB
:1025F8000290039100680968FFF7CAFF07F8090C01
:1026080017F8090C04B080BDF0B503AF2DE9000F31
:10261800ADF57F7D0A460692259002F1340002F15D
:10262800380154320BF006FC0699D1F8C80013F0B3
:102638000EFB05F083F8069901F59470009006F0FA
:10264800C6F801460098019106F0C1F8FA90FE908C
:102658001AF079FB0146019841F00101FB90FC91C9
:10266800FD901AF085FB0699D1F8281127A804F0E7
:10267800E6FF0699D1F8C00005F077FF2B902BA84C
:1026880006F041F80699D1F8C40005F0BAFF2C907D
:102698002CA806F01DF80699D1F85C0113F0B6F9DC
:1026A80002461992084606991490F692F79008681F
:1026B800022102918DF8B410032103918DF8B51011
:1026C8009DF8B5209DF8B41004F088FA029A039991
:1026D800034606981793F89340688DF8B6208DF84E
:1026E800B7109DF8B7209DF8B61004F02FFB069997
:1026F8002290F990D1F87C01049012F0A1FE059087
:1027080012F0A4FE0499059A03462EA8079012F029
:10271800A3FE0699D1F8681140A84FF4805212F030
:102728003FFE06992798289A299BDDF8A8C0CDF87E
:102738001CC14693459244902B9811902C98129066
:10274800D1F89C0006F0A8F806990B90D1F8A400DF
:1027580006F0A8F806990890D1F8A80006F090F8B5
:1027680006990990D1F8AC0006F090F80146069851
:102778000A91D0F88431D0F89021D0F89811489374
:1027880049924A91C16D026E4BA8139012F0FBFC5E
:102798000699D1F8E0001D90D1F8E8001E90D1F814
:1027A800FC001F90D1F814B1D1F80CA1D1F8049114
:1027B800D1F808011590D1F81C012090486B1A90A7
:1027C800886B1B90486D1C90D1F88050D1F88440DC
:1027D800D1F888001890D1F83011CBA81690FFF7DF
:1027E80021FE0699D1F83411D0A82190FFF7DCFD1D
:1027F8000699D1F83811D5AE3046FFF797FD0699FE
:10280800D1F83C110DF55A784046FFF751FD07996C
:10281800DFA82490482223921CF04FFADDF820C04C
:10282800099B0A9ADDF82CE0409941980D9042984E
:102838000C904398F4900C98F3900D98F29025988A
:10284800F1914499109145990F9146990E914799A4
:10285800C1600E98259988600F9925984160109855
:102868002599086011992598016112982599486160
:1028780013992598C0F818E0C0F81CC0036242629A
:10288800489A499BDDF828C1C0F830C0C36282620B
:1028980000F58E704FF400721CF00FFA1499159A17
:1028A800169BDDF85CC02598DDF860E0C0F81C13C5
:1028B80019982599C1F820031A99259841631B98FE
:1028C800259988631C992598C1631D9825990864E2
:1028D8001E99259841641F98259988642099259800
:1028E800C0F84CB0C0F850A0C0F854908265C165DB
:1028F80000F1600193E8050E81E8050E219A2598FC
:1029080000F1740192E8090E81E8090E229B2598CE
:1029180000F1880196E8050E81E8050E239A2598AE
:1029280000F19C0698E8030E86E8030E2499259882
:10293800C0F8B050C0F8B440C0F8B8E0C0F8BCC0A7
:10294800C0F8C030C4301CF0B8F92599F198F29A53
:10295800F39BDDF8D0C3C1F818C1C1F81431C1F830
:102968001021C1F80C010DF57F7DBDE8000FF0BD09
:1029780080B56F46F2B0009002A8019003F0E0FE27
:1029880000980199FFF740FE72B080BD80B56F4690
:1029980086B00091049000F077FF0291019068469C
:1029A8000390039901A800F0A7FD0198029906B0C9
:1029B80080BD80B56F4684B00191014601980291AF
:1029C800039002990A6842F60011C0F2DE7100F025
:1029D800CCFA04B080BD80B56F461AF07DFA80BD90
:1029E80080B56F46F2B0009002A801900AF030FE60
:1029F800009801994FF4E0721CF05FF972B080BD45
:102A080091B0049000F10801059103230693026830
:102A180007924068089009910A930B9101EB820193
:102A28000C91801A0D900E910291039002990398CF
:102A380000910190009801990F90109111B0704782
:102A48008EB00190059001684068401A18B9FFE7F8
:102A58000020039008E0019A10680690411C11605C
:102A6800049001200390FFE7019808300146009187
:102A78000790039818B9FFE7032002900EE000982A
:102A880004990891099003220A920B9000EB8102A5
:102A98000C920D9250F821000290FFE702980EB0B8
:102AA800704780B56F4682B000900191684604F087
:102AB800B3FE02B080BD82B00090019102B07047B1
:102AC80081B001B0704784B000900290039018B9AB
:102AD800FFE70020019002E000980190FFE70198CD
:102AE80004B0704780B56F4688B00091019000200F
:102AF80004900590079007980690069803F060F8F0
:102B0800DDF800C00199039003980290DCF80000FA
:102B1800DCF80420DCF80830DCF80CC0C1F80CC084
:102B28008B604A6008600298086108B080BD80B573
:102B38006F4684B000910390019068460290019816
:102B4800029904F0B5FF04B080BD80B56F4694B01B
:102B580007900891042007F82A0C17F82A0C02F0AD
:102B680025FA0798002107F8291C17F8291C03F0F3
:102B78002FF8014606911190FFF7A5FF0A900A98D1
:102B880048B1FFE706980A990591129108990968D2
:102B980088420ED001E014B080BD05980C9010302A
:102BA800002107F8151C17F8151C03F011F80D90F3
:102BB80015E005980799049110300021039107F852
:102BC800221C17F8221C03F003F8039A0146049804
:102BD80007F8212C17F8212C03F004F8DBE70D98EF
:102BE800FFF771FF0F900F980028D4D0FFE70F98D8
:102BF800029013900D980899096888420CD0FFE755
:102C080002980C901030002107F80E1C17F80E1CC3
:102C180002F0DEFF0D90E2E702980C991031019165
:102C28001030002100918DF840109DF8401002F0FE
:102C3800CFFF009A0146019807F80F2C17F80F2CC0
:102C480002F0D0FFA7E780B56F4684B000910390EB
:102C58006946019102900198029904F007FF00F07B
:102C6800010004B080BD80B56F469CB009900A9100
:102C7800099800680690014607911B9016901790D6
:102C8800042007F83A0C17F83A0C02F08FF90A9862
:102C9800002107F8391C17F8391C02F099FF014682
:102CA80008911890FFF70FFF0E900E9840B1FFE7BC
:102CB80007980E990591199103F034FAD8B90EE0E6
:102CC80007990A98002207F8332C17F8332C02F0DA
:102CD80089FF069801218DF82C100C906CE005985E
:102CE80010901030002107F8251C17F8251C02F059
:102CF8006FFF119019E0079808991030002204928C
:102D080007F8322C17F8322C02F06CFF049A079956
:102D18000A9807F8312C17F8312C02F063FF06984F
:102D280001218DF82C100C9046E01198FFF7CBFE8E
:102D38001390139840B1FFE70798139903911A91DC
:102D480003F0F0F9E8B910E0079910981030002264
:102D5800029207F81A2C17F81A2C02F043FF02996E
:102D680006988DF82C100C9026E0039810901030DF
:102D7800002107F81B1C17F81B1C02F029FF1190F3
:102D8800D3E70798103011990022019207F81D2CFB
:102D980017F81D2C02F026FF0799019A1098103099
:102DA8008DF854209DF8542002F01CFF01990698D4
:102DB8008DF82C100C90FFE79DF82C000C991CB096
:102DC80080BD80B56F4684B0029103920091019254
:102DD8000099019A04F02CFE04B080BD80B56F46BE
:102DE80096B00390059106920020049007F80A0C0B
:102DF800012007F80A0C042007F83A0C17F83A0CD7
:102E080002F0D4F80499059807F8391C17F8391C0A
:102E180002F0DEFE1490FFF756FE0890089868B19D
:102E2800FFE7089902911591002007F80A0C069807
:102E38000991099903F0E4FB40B9FFE703990020E1
:102E4800086017F80A0CC00788BB2EE0029805999D
:102E5800019110300021009107F82E1C17F82E1C44
:102E680002F0B6FE009A0146019807F82D2C17F8D3
:102E78002D2C02F0B7FE02990BA803F08CF90399E8
:102E88000B980C9A0D9BDDF838C0CDF848C011930B
:102E980010920F900F98109A119BDDF848C0C1F856
:102EA8000CC08B604A600860FFE716B080BDFCE785
:102EB80084B0009001910078029009780391401A3B
:102EC800B0FA80F0400904B0704784B000900191D6
:102ED8000078029009780391401AB0FA80F040090E
:102EE80004B0704780B56F4684B001900291039298
:102EF80000F00FF904B080BD80B56F468AB0019329
:102F08001346019A02930B460299039303460398CA
:102F1800049306900791089200F027FB04F0AEF99D
:102F280007F8110C17F8110C062806D1FFE70198CD
:102F38000499029A0A6048600BE0049817F8111C7B
:102F480007F8011C40F2EC02C2F2200204F026F855
:102F5800FFE70AB080BD80B56F4682B0009001914E
:102F6800006812F063FF02B080BD80B56F4686B07E
:102F780001920291039004910592006805F017FCF4
:102F880001990246029812F0BCFE06B080BD80B5D9
:102F98006F468EB00190059005F009FC103008903E
:102FA8000C9019F0D0FE0146019801F00101029140
:102FB80007F81D1C05F0FBFB014601981031009134
:102FC80005F0F5FB103007900D9019F0BCFE014696
:102FD800009821F0010109900A910B9019F0C8FEA0
:102FE8000199029803918DF8100003989DF810102C
:102FF8000EB080BD80B56F468EB0009007F81A1CE1
:10300800A7F11A0101910131049107F8192C0890D0
:10301800006805F0CCFB0146009860310691006815
:1030280005F0C5FB603009900D9019F08CFE014643
:10303800019821F04041029140F2FC01C2F22001C6
:103048000391FFF742FF029A03990346049842EA64
:10305800C3720592FFF72CFF05990246069841EACC
:1030680082710A900B910C9019F082FE0EB080BD0F
:1030780080B56F4688B002900430009005F097FB49
:10308800014600981031019105F091FB1030039032
:10309800079019F058FE0146019841F440710490D8
:1030A8000591069019F064FE08B080BD80B56F46A2
:1030B8008AB00490043005F07AFB5C3008900990DF
:1030C80019F041FE0590C0F3044100F01F00029181
:1030D80003900299069103980790ADF80410ADF893
:1030E8000600BDF80400BDF806100AB080BD80B522
:1030F8006F4686B0009101900291043005F057FBAD
:103108000099643003900491059019F031FE06B0DF
:1031180080BD80B56F46A0B00492059106901A90C4
:103128001B911C9200F0B6F9089008A84FF0807126
:1031380004F06EFE30B9FFE7049905980FF032FEEF
:1031480080B907E0042007F85A0C17F85A0C07F85A
:10315800610C8EE00698FFF78BFF08200390002093
:10316800A8B907E0052007F8590C17F8590C07F813
:10317800610C7EE0039910A8029012F07AFD029982
:103188000DA804F096F80D9802280CD128E040F21A
:103198001010C2F2200040F20012C2F220022121D7
:1031A80019F0E9FFFEDE06980D990E9A0F9B15930C
:1031B800149213911399149A159B0C930B920A91DC
:1031C80000F03BFB0499024605980A9201228DF80B
:1031D80031208DF82F2011F0FEFA169017910CE08F
:1031E8009DF8380007F8010C40F26411C2F2200182
:1031F80003F018FF07F8610C3BE016A818F0BCFBB9
:103208001890189888B9FFE7069800218DF83210B1
:103218008DF8311000F0B4F804F030F807F8190C04
:1032280017F8190C06280FD016E00698189901917E
:103238001E9100F0A5F804F021F807F81B0C17F808
:103248001B0C062819D028E006980AA900F04BF8AC
:10325800062007F8610C0CE017F8190C07F8090CA0
:1032680040F23411C2F2200103F0DCFE07F8610CD1
:10327800FFE717F8610C20B080BD06980AA900F096
:1032880032F8069800F07CF803F0F8FF07F81A0CFB
:1032980017F81A0C06280DD018E017F81B0C07F8B9
:1032A800020C40F25411C2F2200103F0BBFE07F8F1
:1032B800610CDEE70198007802F045F801460698AF
:1032C800FFF715FF01208DF8320096E717F81A0C62
:1032D80007F8030C40F24411C2F2200103F0A2FEE9
:1032E80007F8610CC5E7D0B502AF8CB00291059024
:1032F80006910430019005F05AFA014601986031B0
:10330800039105F054FA603007900B9019F01BFDFB
:10331800029A014603984FF20003CFF6037319404F
:1033280013680493049B41EAC351947992F807E027
:1033380092F808C0537A41EA845141EACE4141EA01
:103348008C41B2F804C06FF31F3C614441EA435119
:10335800927A41EA0251089009910A9019F008FD01
:103368000CB0D0BD80B56F4684B00190043005F034
:103378001EFA74300290039019F0E5FC04B080BD89
:1033880080B56F4686B000900490FFE7009800F083
:1033980081F8029002A84FF4006104F039FD88B961
:1033A800FFE70098FFF782FEADF81400ADF816109D
:1033B800002207F8092C17F8092C04F009FD002849
:1033C800E4D10BE0002007F80A0C17F80A0C07F8FC
:1033D8000B0C17F80B0C07F8110C03E0062007F884
:1033E800110CFFE717F8110C06B080BD80B56F46C9
:1033F8009AB00190099004F0E5FC019A014605A8ED
:10340800043004900692059105F0D1F9103013901C
:1034180002211491159019F0ABFC049805F0C7F936
:1034280010301190002102911291169019F0A0FC11
:10343800049805F0BCF924300F90032110911790DF
:1034480019F096FC0498FFF7A2FD029A8DF8201057
:10345800079007A803901146FFF7CCFD039804F0E6
:10346800F3F9049805F0A3F958300D904FF00F11B7
:103478000E91189019F07CFC049805F098F910301A
:103488000B9001210C91199019F072FC059806997E
:103498001AB080BD80B56F4684B00190043005F045
:1034A80086F914300290039019F04DFC04F0BFFC2B
:1034B80004B080BD80B56F4684B00390FFF7EAFF83
:1034C800019001A84FF4805104F0A2FC20B9FFE755
:1034D800062007F80D0C0BE0012007F8050C17F87B
:1034E800050C07F8060C17F8060C07F80D0CFFE793
:1034F80017F80D0C04B080BD80B56F468AB00291F4
:10350800019008900991FFF7B3FD01980430FFF787
:103518003EFD0246029803920A4603998DF8182048
:10352800059105A9049107910799FFF742FA0498B4
:1035380004F08AF90AB080BD80B56F4688B0019062
:103548000690FFF795FD01980430FFF720FD8DF8F0
:103558001010039003A802900590059800F0ABF9AD
:10356800029804F071F908B080BD80B56F46A6B026
:1035780009920A910B90209021912292FFF78AFFDD
:103588000D900DA84FF0807104F042FC30B9FFE7B0
:1035980009990A980FF006FC80B907E0042007F89B
:1035A8005E0C17F85E0C07F8650C5FE00B98FFF7E8
:1035B8005FFD082008900020A8B907E0052007F85B
:1035C8005D0C17F85D0C07F8650C4FE0089915A815
:1035D800079012F04EFB079912A803F06AFE1298A2
:1035E80002280CD122E040F21010C2F2200040F272
:1035F8007412C2F22002212119F0BDFDFEDE0B98E3
:103608001299139A149B1A93199218911899199A46
:103618001A9B119310920F9100F00FF90F9001204F
:103628008DF8450000201B901C900CE09DF84C0084
:1036380007F8010C40F22C21C2F2200103F0F2FC41
:1036480007F8650C12E009991B98884205D3FFE733
:1036580009991C98884205D2FFE709991B98884266
:103668000ED307E0062007F8650CFFE717F8650C8E
:1036780026B080BD09991C988842C0F08980E2E78D
:1036880009991B98069088420ED2FFE70A98069976
:10369800405C0146049107F8090C1B99481C024636
:1036A800059288420ED308E00999069840F28412E0
:1036B800C2F2200219F076FDFEDE059809998842CB
:1036C80018D00BE040F2B010C2F2200040F2941281
:1036D800C2F220021C2119F04EFDFEDE0B98FFF706
:1036E8004FFE03F0CBFD07F8230C17F8230C062830
:1036F80004D013E000208DF84500EFE70B980FA9E0
:10370800FFF7F1FD0B98FFF73BFE03F0B7FD07F855
:10371800220C17F8220C06280DD01DE017F8230CF0
:1037280007F8020C40F21C21C2F2200103F07AFCD7
:1037380007F8650C9AE7049801F005FE01460B9816
:10374800FFF7D5FC01208DF846001B99481C02465E
:103758000392884210D30CE017F8220C07F8030CE8
:1037680040F20C21C2F2200103F05CFC07F8650C62
:103778007CE703981B907DE740F2B010C2F220006E
:1037880040F2CC12C2F220021C2119F0F4FCFEDE39
:103798000B98FFF78FFE03F071FD07F8210C17F85F
:1037A800210C062809D1FFE70B9800F04BF81F9170
:1037B8001E901E9801280DD045E717F8210C8DF8AA
:1037C800940040F2FC11C2F2200103F02BFC07F830
:1037D800650C4BE71F98249001F0BDFD00F0010037
:1037E800FF2203F01CFD099901901C980290884261
:1037F8000BD2FFE701980A99029A88541C99481C31
:103808000246009288420CD308E00999029840F2D7
:10381800DC12C2F2200219F0C5FCFEDE00981C90F2
:1038280011E740F2B010C2F2200040F2EC12C2F2EE
:1038380020021C2119F09FFCFEDE81B00090006878
:1038480001B0704780B56F4686B000900390043091
:1038580004F0ADFF70300490059019F074FA00F090
:1038680002010020B0EB510F03D0FFE700200190C8
:1038780006E00098FFF776FD029001200190FFE72F
:103888000198029906B080BD80B56F4684B001905A
:103898000390781F009001F0BBFF009801F0F3FF40
:1038A800009802F02BF8009801F077FF0198FFF7D5
:1038B8009DFD04B080BD80B56F4682B001900022A6
:1038C8001146FFF797FB02B080BD80B56F46C0B0C8
:1038D800039104903691049890F8640030B9FFE79A
:1038E8000398359004990868486002E00398359079
:1038F80049E0049865303A904DF6DC70C2F2220037
:103908003B903C903D90012007F8030C042107F8F8
:10391800021C60B9FFE740F2C020C2F2200040F26A
:10392800A422C2F22002232119F025FCFEDE04F0B5
:1039380088F9009007F8010C0120042101F04DFDE1
:1039480004F084F93D983E903E9800F03BF80098CA
:1039580004F07CF90498406805F0DCF940F2DC508A
:1039680004F0DBF801461DA8019004F079F90199EB
:1039780006A8029003F024FE0299049808305C22FD
:103988001BF09BF9FFE70498083039903890389875
:10399800359903F038FD07F82D0C17F82D0CC007E2
:1039A80028B9FFE70498083003F05EFFA1E701207B
:1039B80007F8E90C0499032081F8640017F8E90C6A
:1039C80040B080BD80B56F4698B0039012900168F2
:1039D800481C0246049288420ED3FFE704980399D4
:1039E80008600320059040F26C31C2F2200105A85E
:1039F8000EF04CFF70B90BE040F25030C2F22000DC
:103A080040F23C32C2F220021C2119F0B4FBFEDE67
:103A180018B080BD002007F8110C17F8111C48F2E7
:103A28006C10C2F2000001F0ABFA069005A806A9D6
:103A38000EF02CFF0028EBD0FFE7039916914CF20B
:103A48004350C0F2010017901491159014991598DD
:103A58000D910E9069460120086040F2B831C2F21B
:103A6800200107A8029002220DAB01F091FB0298F9
:103A7800059900220F920F9B109AEC46CCF8002073
:103A880040F2D432C2F2200211F0E7F8C0E7D4D4F1
:103A980080B56F46ADF5AB6D1691189047F8AC1C24
:103AA8001898807E17901799DFE801F0050404281C
:103AB8002C303400FEDE169847F8B00C18980168D0
:103AC800406847F8A01C47F89C0C189A9160189910
:103AD800C8604CF2503004F020F8014631A8149028
:103AE80004F0BEF814991AA8159003F069FD159909
:103AF80018981C305C221BF0E0F80FE0169847F885
:103B0800B00C0BE0169847F8B00C90E0169847F800
:103B1800B00C8EE1169847F8B00C9FE118981C304D
:103B280047F8040C47F8080C57F8080C57F8B01C6D
:103B380003F069FC8DF821019DF82101C00790B9B7
:103B4800FFE718981C3003F08FFE18998868C96839
:103B580000F0FDFE8DF823118DF822019DF8220159
:103B680006280BD015E001208DF86700189903206E
:103B780088769DF867000DF5AB6D80BD03204990F0
:103B880040F26C31C2F2200149A80EF07FFE10BB52
:103B98000CE09DF822119DF823018DF84D118DF848
:103BA8004E019DF84D01002855D080E040F2DC50D0
:103BB80003F0B3FF01467CA8129004F051F8129963
:103BC80065A8139003F0FCFC139918981C305C222C
:103BD8001BF073F82BE0002007F8910C17F8911CE4
:103BE80048F26C10C2F2000001F0CAF94A9049A8E4
:103BF8004AA90EF04BFE0028D8D0FFE740F2084152
:103C0800C2F220014BA81190012201F00CFB11987F
:103C1800499900225192519B529AEC46CCF80020C7
:103C280040F21042C2F2200211F017F8BEE71898CD
:103C38001C3047F80C0C47F8100C57F8100C57F8C4
:103C4800B01C03F0E0FB8DF84F029DF84F02C0074F
:103C5800002858D08CE09DF84E018DF84F010DF2E8
:103C68004F1147F8281C43F67D30C0F2010047F891
:103C7800240C47F8301C47F82C0C57F8301C57F820
:103C88002C0C5A915B9068460122026040F2444134
:103C9800C2F2200154A810905AAB01F079FA10989A
:103CA80040F24C41C2F2200119F037FAFEDE9DF8CD
:103CB8004E018DF873010DF2731147F8581C4CF240
:103CC8004720C0F2010047F8540C47F8601C47F839
:103CD8005C0C57F8601C57F85C0C6391649068465C
:103CE8000122026040F27441C2F220015DA80F90E7
:103CF80063AB01F04DFA0F9840F27C41C2F220010B
:103D080019F00BFAFEDE18981C3003F0ADFD002008
:103D18000A9005F031F801460A980E9105F02CF842
:103D280001460A980B9105F027F801460A980C916C
:103D380005F022F801460A980D9105F01DF8DDF806
:103D48002CC00C9B0D9ADDF838E01899A1F810E00A
:103D5800A1F812C08B82CA8208830320949040F293
:103D68006C31C2F2200194A80EF090FDD8B90AE097
:103D780001208DF867001899042088769DF867005F
:103D88000DF5AB6D80BD18988068012100F030FFFB
:103D980027F8980C37F8980CADF880029DF8800247
:103DA80006287ED08DE0002007F8920C17F8921CA8
:103DB80048F26C10C2F2000001F0E2F8959094A865
:103DC80095A90EF063FD0028DDD0FFE740F28C31A5
:103DD800C2F2200147F8681C4CF24350C0F20100BF
:103DE80047F8640C47F8701C47F86C0C57F8701CBF
:103DF80057F86C0C9C919D9069460120086040F230
:103E0800A841C2F2200196A8099002229CAB01F0B9
:103E1800BFF90998949900229E929E9B9F9AEC461E
:103E2800CCF8002040F2B842C2F2200210F015FF90
:103E3800A9E718981C3047F81C0C47F8200C57F8CD
:103E4800200C57F8B01C03F0DEFA8DF893039DF8A8
:103E58009303C007002800F0BC80CEE018981C30FF
:103E680047F8140C47F8180C57F8180C57F8B01CFA
:103E780003F0C9FA07F8B10C17F8B10CC00728B954
:103E8800FFE718981C3003F0EFFC7CE701208DF861
:103E980067001899062088769DF867000DF5AB6DC8
:103EA80080BD9DF881028DF883020320A19040F225
:103EB8006C31C2F22001A1A80EF0E8FC002845D11F
:103EC8002FE09DF880129DF881028DF8B6128DF8CA
:103ED800B7020DF2B62147F8481C45F62940C0F252
:103EE800000047F8440C47F8501C47F84C0C57F8AA
:103EF800501C57F84C0CB491B590684601220260EA
:103F080040F2B051C2F22001AEA80890B4AB01F063
:103F18003FF9089840F2B851C2F2200119F0FDF8B3
:103F2800FEDE40F2DC5003F0F8FD0146CDA8069015
:103F380003F096FE0699B6A8079003F041FB07998F
:103F480018981C305C221AF0B8FE72E7002007F8B7
:103F5800930C17F8931C48F26C10C2F2000001F0A1
:103F68000FF8A290A1A8A2A90EF090FC0028D8D022
:103F7800FFE70DF2832147F8781C4CF2B110C0F22C
:103F8800010047F8740C47F8801C47F87C0C57F878
:103F9800801C57F87C0CA991AA90684601220260FF
:103FA80040F2F441C2F22001A3A80590A9AB01F0A8
:103FB800EFF80598A1990022AB92AB9BAC9AEC461E
:103FC800CCF8002040F2FC42C2F2200210F045FE7C
:103FD800A7E718981C3003F047FC18998868103137
:103FE80000F0A2FB27F8960C37F8960CADF894036E
:103FF8009DF8940306280BD01AE001208DF867007D
:104008001899052088769DF867000DF5AB6D80BD81
:104018009DF895038DF897030320E69040F26C31E4
:10402800C2F22001E6A80EF031FC002846D12FE0AC
:104038009DF894139DF895038DF8CA138DF8CB035A
:104048000DF2CA3147F8381C45F62940C0F2000085
:1040580047F8340C47F8401C47F83C0C57F8401C0C
:1040680057F83C0CF991FA9068460122026040F238
:104078007C51C2F22001F3A80490F9AB01F088F852
:10408800049840F28451C2F2200119F046F8FEDE8D
:1040980040F2DC5003F041FD01460DF589600290C5
:1040A80003F0DEFD0299FBA8039003F089FA039957
:1040B80018981C305C221AF000FECFE6002007F8A2
:1040C800940C17F8941C48F26C10C2F2000000F02F
:1040D80057FFE790E6A8E7A90EF0D8FB0028D7D04D
:1040E800FFE70DF2973147F8881C4CF2B110C0F287
:1040F800010047F8840C47F8901C47F88C0C57F8D7
:10410800901C57F88C0CEE91EF90684601220260E3
:1041180040F23851C2F22001E8A80190EEAB01F05C
:1041280037F80198E6990022F092F09BF19AEC4654
:10413800CCF8002040F24052C2F2200210F08DFD6F
:10414800A6E780B56F469EB045F26C00C2F200004B
:10415800149045F29B41C0F2000115911B9000217B
:1041680007F80D1C17F80D1C783000F0E7FE002842
:1041780056D0FFE745F26C00C2F200001D90022104
:1041880007F8061C002207F8052C17F8063C17F854
:10419800051CEC46CCF800107930012100F074FEC3
:1041A8008DF871108DF870001CA802F04AFFB8B3A2
:1041B800FFE745F29B40C0F200004AF65C01C2F2FC
:1041C800220101F0F3F801F0DDF81191109010A828
:1041D80001F0E1F8129045F26C00C2F2000019906B
:1041E800189017901798169012A9FFF751FC07F826
:1041F8002A0C17F82A0CC00770B9FFE7012007F846
:10420800290C17F8292C45F26C00C2F2000078300E
:10421800002100F0A1FEFFE710A804F0F2FFFFE77D
:1042280045F20000C2F20000069045F2AB41C0F230
:10423800000107910D90002107F8451C17F8451C4F
:10424800683000F07BFE002856D0FFE745F20000FA
:10425800C2F200000F90022107F83E1C002207F866
:104268003D2C17F83E3C17F83D1CEC46CCF80010E6
:104278006930012100F008FE8DF839108DF83800FA
:104288000EA802F0DEFEB8B3FFE745F2AB40C0F27D
:1042980000004AF65C01C2F2220101F087F801F041
:1042A80071F80391029002A801F075F8049045F2A4
:1042B8000000C2F200000B900A900990099808903B
:1042C80004A9FFF702FB07F8620C17F8620CC00795
:1042D80070B9FFE7012007F8610C17F8612C45F267
:1042E8000000C2F200006830002100F035FEFFE750
:1042F80002A804F086FFFFE71EB080BD80B56F46B8
:1043080084B0019045F26C00C2F2000003900121D4
:1043180007F8051C17F8052C793000F01DFE6520FC
:1043280007F80D0C17F80D0C03F037F804B080BD32
:1043380080B56F4684B0019045F20000C2F20000DB
:104348000390012107F8051C17F8052C693000F0C7
:1043580003FE652007F80D0C17F80D0C03F01DF887
:1043680004B080BD80B56F4682B000F002F802B09C
:1043780080BDF0B503AF2DE9000BADF6883D03F025
:1043880047FEEBA80A90FEF72BFB0A993CA80B9076
:104398004FF4E0720C921AF090FC0B990C9A0020E2
:1043A800CDF86C050DF50B600D901AF086FC0D9993
:1043B8000DF28C50FEF7DCFADDF8A405CDF8740593
:1043C800DDF8A805CDF87805DDF8B405DDF8B815F1
:1043D800DDF8BC25CDF88425CDF88015CDF87C0511
:1043E800DDF8D405119047F86C0CDDF89C05CDF884
:1043F80088050DF527600E9009F05EFD0E980DF208
:104408007C5109F069FD45F20010C0F2252003F047
:1044180062F80DF5B1600F9004F075F90F984FF43C
:104428007A7103F0F3FE0F98022103F0A0FFDDF884
:10443800880503F0BBFC0146109147F8680C0DF5A0
:10444800AF60149004F064FA024611981346129370
:104458000B46139347F8642C47F8601C41F68021FB
:10446800C0F20601FEF792FA0246149815920A461F
:104478001599CDF8802ACDF87C1A04F059FA1B90CA
:104488001D9147F85C0C47F8581C0DF67C20FFF787
:1044980053F80DF274501A9004F00AFA1C900C4666
:1044A80047F8540C47F8504C11F00EFD4FF40062D9
:1044B800CDF8842ADDF8842A11F010FD02461792FF
:1044C800169147F84C2C47F8481C0DF27350189079
:1044D80047F8340C47F8302C47F82C1C47F81C0CCC
:1044E80002F08CFF18F02FFC169B179A01461898BB
:1044F80047F8281C99431143199147F8241C47F899
:10450800200C02F07BFF199918F032FC1A9804F07D
:10451800EFF905461A980E4647F8445C47F8406C90
:1045280004F0D6F91B9BDDF870E080461D9889469B
:1045380047F83C8C47F8389CDDF87C1ADDF8802A6F
:10454800EC46CCF81890CCF81480CCF81060CCF875
:104558000C50CCF80840CCF804E0CCF800000DF67C
:10456800882000F084F9DDF8880A022812D1FFE7D4
:1045780040F22431C2F22001A7F1C00009900122C3
:1045880000F051FE099840F22C31C2F2200118F0D7
:10459800C4FDFEDE0DF68821A7F1EC000890B1E815
:1045A8001C50A0E81C5091E83C5080E83C5000F0BA
:1045B8007BFF40F2F021C2F2200102F049FD129A7D
:1045C8001399089B10984FF0000C47F8A8CC47F8AF
:1045D800782C47F8741CA7F1A4010A46B3E8705078
:1045E800A2E8705093E8705182E8705147F8700C57
:1045F80057F8A80C2D902DA8021D1046B1E81850A8
:10460800A0E81850B1E83850A0E8385091E8385080
:1046180080E838502D98C3901FAB1946B2E8305047
:10462800A1E83050B2E87050A1E8705092E870509C
:1046380081E870504DF6DC71C2F22201E991EA91ED
:10464800C690C590C598C490C498DE91DF90086064
:104658004DF6E071C2F22201E391E4912A9A2B9877
:10466800CB92CC90C992CA90C99ACA98C792C8905E
:10467800C79AC898E091E192E2900A6048604DF6C6
:10468800E870C2F22200E790E890B7AA1146B3E8B2
:104698007050A1E8705093E8705181E87051CDAB2B
:1046A8001946B2E87050A1E8705092E8705181E85C
:1046B8007051ACA90A46B3E87050A2E8705093E86C
:1046C800705182E87051DB90B1E81C50A0E81C5092
:1046D80091E83C5080E83C504EF21401C2F22201AD
:1046E800E591E6912C98DA90D990D998D890D898F5
:1046F800DC91DD90086003F081FC0DF6883DBDE893
:10470800000BF0BD82B0019040F0020002B070478B
:1047180082B0019040F0040002B0704782B001906E
:1047280020F0040002B0704780B56F4696B0029042
:104738000F9010910020CDF817000590049040F2DA
:10474800C850C2F2200004F00EFB014602988DF812
:1047580010100F218DF811108DF813108DF8151009
:104768008DF817108DF81910083004F068F802F069
:10477800AFFC02F0E9FD07F8391C07F83A0C17F806
:104788003A0C062813D1FFE702990CA8009004AA56
:104798000B23FEF7B1FB00990AA8019002F0BBFCBD
:1047A800019908A802F0AAFD0898A8B929E017F805
:1047B8003A0C17F8391C8DF854008DF8551040F252
:1047C8002862C2F2200202F014FC27F8020C37F823
:1047D800020C27F84A0C46E00298089A09991192A7
:1047E8001291083004F03BF802F072FC02F0ACFDC4
:1047F80007F81D1C07F81E0C17F81E0C062815D004
:104808001CE09DF824009DF825108DF850008DF8C7
:10481800511040F21862C2F2200202F0EAFB27F8B7
:10482800060C37F8060C27F84A0C1CE09DF8100017
:1048380007F8490C062007F84A0C14E017F81E0C74
:1048480017F81D1C8DF84C008DF84D1040F20862C9
:10485800C2F2200202F0CDFB27F80A0C37F80A0C46
:1048680027F84A0CFFE737F84A0C16B080BDF0B5B8
:1048780003AF2DE9000BA6B01E46019288460146FB
:1048880001980291396AFA69BB69D7F814C0D7F858
:1048980010E0FC68BD68CDF86C801C901D961E95D4
:1048A8001F94CDF880E0CDF884C022932392249100
:1048B8004FF0000907F8739CCDF81080059004A804
:1048C8000830069607950894CDF824E0CDF828C05E
:1048D8000B930C920D9117F8731C8DF8381003F098
:1048E800BEFF02F0F5FB02F02FFD07F8711C07F878
:1048F800720C17F8720C062815D1FFE7029804AB62
:1049080010A90A46B3E87050A2E8705093E87051B5
:1049180082E87051B1E81C50A0E81C5091E83C5066
:1049280080E83C500FE0029817F8721C17F8712CB9
:1049380007F81A1C07F8192C40F23863C2F2200352
:1049480002F03DFBFFE726B0BDE8000BF0BD80B5E7
:104958006F4690B0029103900B900C91183003F0C1
:1049680066FF02F00AFC02F0EFFC8DF819108DF8D2
:1049780018009DF81800062815D1FFE702980121B4
:1049880003F079F90398183003F061FF02F07DFB1A
:1049980002F0DAFC07F8251C07F8260C17F8260C95
:1049A800062813D015E09DF818009DF8191007F88F
:1049B800020C07F8011C49F6D432C2F2220202F0B6
:1049C800D2FA07F8291C07F82A0C5CE06420079043
:1049D80012E017F8260C17F8251C8DF83C008DF806
:1049E8003D1049F6C432C2F2220202F0BCFA07F8BE
:1049F800291C07F82A0C46E00798002811DCFFE775
:104A08000398083003F01BFF02F062FB02F09CFCE5
:104A180007F81C1C07F81D0C17F81D0C062838D0C1
:104A28004FE002980A2103F026F90398103004F0A9
:104A380039F80028E4D1FFE70799481E0246019299
:104A4800884205D6FFE701980790079860B1D3E739
:104A580040F26060C2F2200040F24862C2F22002D6
:104A6800212118F088FBFEDE012007F81E0C052026
:104A780007F81F0C17F81F1C17F81E0C07F82A1C3C
:104A880007F8290CFFE717F82A0C17F8291C10B0AB
:104A980080BD039840F28161C2F2200149F20052C0
:104AA800C0F20202FEF71EFA02F08AFB02F04CFC8A
:104AB80007F81A1C07F81B0C17F81B0C062813D04C
:104AC80023E017F81D0C17F81C1C07F8060C07F84C
:104AD800051C49F6B432C2F2220202F044FA07F881
:104AE800291C07F82A0CCEE70398083003F0B7FE14
:104AF80002F0EEFA02F028FC07F8181C07F8190C67
:104B080017F8190C062813D015E017F81B0C17F81E
:104B18001A1C8DF838008DF8391049F6A432C2F203
:104B2800220202F020FA07F8291C07F82A0CAAE743
:104B38006420079012E017F8190C17F8181C07F8EA
:104B48000A0C07F8091C49F69432C2F2220202F054
:104B58000AFA07F8291C07F82A0C94E7079800288E
:104B680004DCFFE7062007F82A0C8CE7029864218A
:104B780003F081F80398203003F07CFF38B9FFE791
:104B88000799481E0246009288420ED608E003990B
:104B9800012007F8170C17F8170C81F82800E1E72F
:104BA80000980790079860B1D8E740F26060C2F2B9
:104BB800200049F68432C2F22202212118F0DBFAE1
:104BC800FEDE022007F8150C052007F8160C17F86A
:104BD800161C17F8150C07F82A1C07F8290C52E7B9
:104BE80081B0FEDE9DF800009DF8011001B070470D
:104BF80080B56F4694B003900D9007F8151C0020FF
:104C080007F83B0C21B9FFE7B02007F83B0C03E09D
:104C1800302007F83B0CFFE70398083003F00FFE3D
:104C280002F056FA02F090FB07F8391C07F83A0C24
:104C380017F83A0C062814D1FFE703990AA801903F
:104C4800A7F13B020123FEF757F9019908A8029042
:104C580002F061FA029906A802F050FB0698A8B97A
:104C680029E017F83A0C17F8391C8DF84C008DF824
:104C78004D1049F60442C2F2220202F0BAF927F8AE
:104C8800020C37F8020C27F83E0C46E00398069A07
:104C980007990F921091083003F0E1FD02F018FA1D
:104CA80002F052FB07F81D1C07F81E0C17F81E0C23
:104CB800062815D01CE09DF81C009DF81D108DF8E5
:104CC80048008DF8491049F6F432C2F2220202F087
:104CD80090F927F8060C37F8060C27F83E0C1CE06C
:104CE80017F83B0C07F83D0C062007F83E0C14E0BB
:104CF80017F81E0C17F81D1C8DF844008DF8451088
:104D080049F6E432C2F2220202F073F927F80A0CDB
:104D180037F80A0C27F83E0CFFE737F83E0C14B0BA
:104D280080BD48F27011C2F200010120087070477E
:104D380080B56F4688B00090019107904EF214003C
:104D4800CEF200000290039104900591069018F0AD
:104D58000FF808B080BD80B56F468AB00190099001
:104D68004EF21000CEF200000090039004900590DF
:104D780017F0E9FF0290029818F05DF801460098D4
:104D880006900791089017F0F3FF0AB080BD80B530
:104D98006F468AB0019009904EF21000CEF20000E2
:104DA800009003900490059017F0CDFF02900298B0
:104DB80018F03BF80146009806900791089017F004
:104DC800D7FF0AB080BD80B56F468AB001900990C0
:104DD8004EF21000CEF2000000900390049005906F
:104DE80017F0B1FF02900298FFF78CFC014600987B
:104DF80006900791089017F0BBFF0AB080BD80B5F8
:104E08006F4696B0039007F8451C059017F8450CB7
:104E1800C007C0B9FFE7039815904EF21000CEF214
:104E28000000029009900A900B9017F08CFF0890F0
:104E38000898FFF76DFC014602980E900F911090AC
:104E480017F096FF17E0039814904EF21000CEF278
:104E58000000019007900C900D9017F074FF0690D9
:104E68000698FFF75BFC0146019811901291139088
:104E780017F07EFFFFE716B080BD80B56F464FF490
:104E8800E07219F01AFF80BDD0B502AF88B0D7F82C
:104E980008C04FF0000E07F81EEC07F81DEC0124BF
:104EA8008DF80C4007F81B4C07F81AEC07F819ECBA
:104EB800059007F80E1C07F80D2C8DF81C3007F824
:104EC8000BCCEE46CEF800C000F098FE07F8151C93
:104ED80007F8160C17F8160CC00768B9FFE717F89B
:104EE800150C07F80A0C002818BF01208DF81100CE
:104EF80000208DF810000CE017F8150C07F8090CC5
:104F0800002818BF01208DF8110001208DF810002D
:104F1800FFE79DF810009DF8111008B0D0BD81B0D2
:104F28008DF802008DF803008DF801009DF801004E
:104F38008DF800009DF8000001B0704780B56F46FD
:104F480082B0009007F8011C0CF006F8C0B20028E7
:104F580018BF012002B080BD80B56F4682B00090B6
:104F680007F8021C07F8012C0CF08CF802B080BD81
:104F780083B00290019001980090009803B07047A8
:104F880080B56F4682B0009007F8011C0FF0A2F8B8
:104F980002B080BD80B56F4684B00190029107F8D9
:104FA800012C0FF029F904B080BDD4D480B56F4628
:104FB8008CB007F8290C17F8290C00900099DFE845
:104FC80001F0042124272A00FEDE49F64042C2F2FD
:104FD80022020A9201210B9100200890029203916B
:104FE800089A09990692079149F64841C2F22201A6
:104FF8000491059049F69841C2F2220102A818F0DE
:105008008CF8FEDEBFF35F8F08E0BFF35F8F05E02B
:10501800BFF35F8F02E0BFF35F8FFFE70CB080BD87
:1050280080B56F4688B001910146019802910790BA
:1050380003F0E5FB01460198039103F0E0FB01460C
:1050480001986031049103F0DAFB01460198C03100
:10505800059103F0D4FB029900F59070069003982F
:10506800086004984860059888600698C86008B089
:1050780080BD80B56F4688B00191014601980291C4
:10508800079003F07CFB01460198039103F077FB3E
:10509800014601986031049103F071FB01460198C3
:1050A800C031059103F06BFB029900F590700690F2
:1050B8000398086004984860059888600698C86056
:1050C80008B080BD80B56F4688B00191014601984F
:1050D8000291079003F09BFB01460198039103F0AE
:1050E80096FB014601986031049103F090FB01465C
:1050F8000198C031059103F08AFB029900F5907080
:105108000690039808600498486005988860069897
:10511800C86008B080BD80B56F4688B0019101466F
:1051280001980291079003F04AFB01460198039108
:1051380003F045FB014601986031049103F03FFB01
:1051480001460198C031059103F039FB029900F539
:1051580090700690039808600498486005988860E5
:105168000698C86008B080BD81B001B0704780B5AE
:105178006F4684B00191014601980291039049F667
:10518800A841C2F22201022218F08CFC04B080BDB2
:1051980080B56F4696B00193029203910490B86867
:1051A80005901091119212931390824206D3FFE753
:1051B800029805990131884218D800E016E0059850
:1051C8000499019A029BDDF80CC04FF0000ECDF84F
:1051D80030E0C1F800C04B60DDF830C00D9BC1F86D
:1051E80010C04B618A60C86016B080BD49F6B842ED
:1051F800C2F2220214920121159100200E9006920B
:1052080007910E9A0F990A920B9149F6C041C2F282
:1052180022010891099049F60C51C2F2220106A810
:1052280017F07BFFFEDE80B56F468EB001920291CB
:1052380003900C910D92012A13D8FFE70399019A64
:10524800029B00200A900B604A600A9B0B9A0B6134
:105258004A6149F6C042C2F222028A60C8600EB0B2
:1052680080BD49F6B841C2F2220104A8009001228B
:10527800FFF7D9FF009849F61C51C2F2220117F036
:105288004CFFFEDE8AB002900391089009910690C7
:10529800079106990798049105900499059800913B
:1052A8000190009801990AB0704780B56F4682B0A6
:1052B80000900191FDF7FFFB02B080BDB0B502AFD1
:1052C8008AB00A460190089002A9009192E83850E5
:1052D80081E8385002F092FA009A0198014692E863
:1052E800385081E83850006818B9FFE70020079067
:1052F80002E001980790FFE7079820B1FFE70798B9
:1053080009900AB0B0BDFEDE81B000900068B0FA26
:1053180080F0400901B0704784B0009001910068A6
:10532800029009680391401AB0FA80F0400904B06D
:10533800704780B56F4682B000900191006817F001
:10534800D9FD02B080BD81B08DF802008DF8030050
:10535800C0B201B0704780B56F4682B0019003F0CB
:10536800EBFC00F0010002B080BD80B56F4684B050
:105378000090019100984168029101980390884734
:1053880004B080BD84B00290039100900191009810
:10539800019904B0704782B001900090009802B063
:1053A800704781B00090006801B0704784B00290E7
:1053B8000391019000910098019904B0704780B55D
:1053C8006F4684B003900168406809688847019077
:1053D80002910198029904B080BD80B56F4686B0ED
:1053E8000246C8B20B4603931346049307F8022CEF
:1053F80007F8011C07280CD8FFE70498039901F067
:105408000702012191400A1AC0B20292884214D8B8
:105418000BE049F6A050C2F2220049F68452C2F2CB
:105428002202232117F0A7FEFEDE0398C0F108012F
:10543800C0B20191082811D80BE049F6E050C2F239
:10544800220049F6C452C2F22202212117F093FE2B
:10545800FEDE0198C0B208280CD312E049F6E050ED
:10546800C2F2220049F60462C2F22202212117F098
:1054780082FEFEDE0298019901F00701884006B01D
:1054880080BD49F6A050C2F2220049F6C452C2F2C9
:105498002202232117F06FFEFEDE80B56F4682B030
:1054A800FFE7FDF798FAFCE780B56F46ADF5127D8A
:1054B80045F26C00C2F20000469003218DF81611E7
:1054C80000218DF817119DF816319DF81721EC462B
:1054D800CCF8002078300122FFF7D6FC8DF81511A2
:1054E8008DF8140145A801F0ACFD20B9FFE70120B3
:1054F8008DF81F009AE04DF6E870C2F222009090F5
:105508009190002040B9FFE74DF6E870C2F2220002
:105518008D90012060B914E04DF6E871C2F22201C5
:1055280049F62062C2F22202042017F05BFEFEDE7A
:105538004EF21400C2F222008E908F90012060B9C2
:1055480013E04DF6E871C2F2220149F62062C2F278
:105558002202042017F046FEFEDE4EF21400C2F2CC
:1055680022008C900120C0B90BE04EF21401C2F267
:10557800220149F62062C2F22202042017F032FE0C
:10558800FEDE4EF21401C2F2220149F62062C2F296
:105598002202042017F026FEFEDE4DF6E870C2F265
:1055A80022008A904EF21400C2F222008B908A994F
:1055B8008B98889189908899899A08A8019000F019
:1055C8003AF8019926A802907822059219F075FBFD
:1055D8000299059A45F26C00C2F2000006906590A7
:1055E800859066A8039019F068FB0399059A47A867
:1055F800049019F062FB0499059A0698849019F0B2
:105608005CFB06988790012107F82D1C17F82D2CB4
:105618007930FFF7A1FC65208DF813019DF813017F
:1056280001F0BBFE00208DF81F00FFE79DF81F006A
:105638000DF5127D80BD83B0009101460098019060
:10564800029208604A600020887603B0704780B5EF
:105658006F4682B0012007F8010CFEF772FD0020AA
:1056680002F0F4FA02B080BD80B56F4682B002F055
:10567800CAFCFFF756FB02F0CBFC6520009007F848
:10568800020C01200421FFF7A8FE024617F8021CAD
:10569800F81E02F0C0FC009807F8010C17F8010C7E
:1056A80006F0CFF8FEF75EFEFFF7F7FEFEDE80B5E8
:1056B8006F4603F056FD00F052FF80BD87B003909F
:1056C8000491A0FB0110002818BF01200A4600928F
:1056D80005918DF81A008DF81B009DF81B00C00776
:1056E80028B9FFE7009802900120019002E000200D
:1056F8000190FFE70198029907B07047B0B502AF73
:1057080090B01C46019101460198099008910B94AC
:105718000A92A4FB015CA0FB023E2B44A1FB0221E0
:10572800C9184FF0000343F10003002C18BF0124EF
:10573800002818BF01202040BEF1000F18BF4FF00D
:10574800010E40EA0E00BCF1000F18BF4FF0010C2B
:1057580040EA0C001843134602930B4603930C923D
:105768000D9107F80A0C07F8090C17F8090CC0077F
:1057780048B9FFE703980299069107900020059021
:105788000120049003E0002005900490FFE70498AE
:105798000599069A079B10B0B0BD80B56F468EB0CC
:1057A8000190029008900321009109910B9001F05B
:1057B8000CFE17F0C8FA009A01460198079107995C
:1057C80062F3030107910A9001F0FFFD079917F0B2
:1057D800CFFA019806900D9001F0F7FD17F0B3FA93
:1057E800014601980591059941F0100105910C9029
:1057F80001F0EBFD059917F0BBFA48F21C50C4F212
:105808001F0003900021049117F0B2FA0EB080BD7A
:1058180080B56F468EB001900290089003210091E8
:1058280009910B9001F0CCFD17F08DFA009A014612
:1058380001980791079962F3030107910A9001F013
:10584800BFFD079917F094FA019806900D9001F0A2
:10585800B7FD17F078FA014601980591059941F0CE
:10586800100105910C9001F0ABFD059917F080FA35
:1058780048F22850C4F21F0003900021049117F049
:1058880077FA0EB080BD80B56F468EB00190029059
:1058980008900321009109910B9001F0A5FD17F0E4
:1058A80052FA009A014601980791079962F3030199
:1058B80007910A9001F098FD079917F059FA019895
:1058C80006900D9001F090FD17F03DFA0146019801
:1058D8000591059941F0100105910C9001F084FDA6
:1058E800059917F045FA48F22450C4F21F000390B6
:1058F8000021049117F03CFA0EB080BD80B56F46C8
:105908008EB00190029008900321009109910B90AC
:1059180004F009FF17F017FA009A01460198079159
:10592800079962F3030107910A9004F0FCFE0799B6
:1059380017F01EFA019806900D9004F0F4FE17F087
:1059480002FA014601980591059941F01001059167
:105958000C9004F0E8FE059917F00AFA48F2205076
:10596800C4F21F0003900021049117F001FA0EB051
:1059780080BDD4D480B56F46A8B0039007F8891CC1
:10598800239017F8890C04900499DFE801F00408C3
:1059980012182300FEDE03980068069020E049F6FE
:1059A8005860C2F222002490012025900020A8BB54
:1059B80019E003980068BFF35F8F069010E049F67E
:1059C8006470C2F22200269001202790002000284F
:1059D80050D134E003980068BFF35F8F0690FFE76B
:1059E800069828B080BD0020219049F65861C2F27F
:1059F8002201079101210891219A22990B920C9179
:105A080049F66061C2F2220109910A9049F6B06133
:105A1800C2F2220107A817F080FBFEDE49F6CC612E
:105A2800C2F222011BA802900122FFF7FCFB029898
:105A380049F62071C2F2220117F06FFBFEDE00204A
:105A4800199049F66471C2F222010D9101210E915B
:105A5800199A1A991192129149F66061C2F22201BB
:105A68000F91109049F66C71C2F222010DA817F03F
:105A780054FBFEDE49F6CC61C2F2220113A8019064
:105A88000122FFF7D0FB019849F62071C2F22201EA
:105A980017F043FBFEDED4D480B56F46A8B0029160
:105AA800039007F8892C2290239117F8890C049009
:105AB8000499DFE801F004080E182300FEDE0298BE
:105AC8000399086022E002980399BFF35F8F08608A
:105AD8001CE049F6A870C2F222002490012025900B
:105AE800002080BB14E049F6F470C2F22200269030
:105AF800012027900020002851D135E00298039911
:105B0800BFF35F8F0860BFF35F8FFFE728B080BDEA
:105B18000020209049F6A871C2F2220106910121C5
:105B28000791209A21990A920B9149F66061C2F275
:105B380022010891099049F6B071C2F2220106A823
:105B480017F0EBFAFEDE49F6CC61C2F222011AA880
:105B580001900122FFF767FB019849F62071C2F214
:105B6800220117F0DAFAFEDE0020189049F6F471E7
:105B7800C2F222010C9101210D91189A19991092E3
:105B8800119149F66061C2F222010E910F9049F617
:105B9800FC71C2F222010CA817F0BFFAFEDE49F62A
:105BA800CC61C2F2220112A800900122FFF73BFB50
:105BB800009849F62071C2F2220117F0AEFAFEDE13
:105BC80083B00290019001980090009803B070474C
:105BD80080B56F4682B0009007F8011CFFF7CAFE37
:105BE80002B080BD80B56F4684B00190029107F87D
:105BF800012CFFF751FF04B080BDD4D4D0B502AF5B
:105C0800B0B09C460890BB689646CDF824E00C4698
:105C18000A9407F896CC07F8953C2A908DF8AC10B2
:105C280007F81B2C17F8960C0B900B99DFE801F07E
:105C3800041325374900FEDE17F8950C0146079135
:105C4800002856D0FFE70798022869D0FFE7079891
:105C580004287ED047E017F8950C014606910028E5
:105C680000F0A180FFE70698022800F0B580FFE762
:105C78000698042800F0CB8035E017F8950C01460B
:105C88000591002800F0DE80FFE70598022800F063
:105C9800F280FFE70598042800F0068123E017F852
:105CA800950C01460491002800F01981FFE704983B
:105CB800022800F02F81FFE70498042800F04581AE
:105CC80011E017F8950C01460391002800F058815F
:105CD800FFE70398022800F06E81FFE70398042885
:105CE80000F08481FFE717F8950C012800F0AD81DA
:105CF800B5E10A98089BDDF824C0C0B2D3E84F1F6D
:105D0800014503D1C3E842CF002AF7D1C0B2081A2F
:105D1800B0FA80F0400907F8921C07F8910C33E0BC
:105D28000A98089BDDF824C0C0B2D3E84F1F01458C
:105D380003D1C3E842CF002AF7D1C0B2081AB0FA9B
:105D480080F04009BFF35F8F07F8921C07F8910CA9
:105D58001AE00A98089BDDF824C0BFF35F8FC0B231
:105D6800D3E84F1F014503D1C3E842CF002AF7D13A
:105D7800C0B2081AB0FA80F04009BFF35F8F07F885
:105D8800921C07F8910CFFE717F8920C0146029154
:105D980007F81A0C17F8910C07F8190CC007002817
:105DA80040F046813DE10A98089BDDF824C0BFF326
:105DB8005F8FC0B2D3E84F1F014503D1C3E842CF7C
:105DC800002AF7D1C0B2081AB0FA80F0400907F8E3
:105DD800921C07F8910CD7E70A98089BDDF824C0B5
:105DE800BFF35F8FC0B2D3E84F1F014503D1C3E8AB
:105DF80042CF002AF7D1C0B2081AB0FA80F04009A1
:105E0800BFF35F8F07F8921C07F8910CBCE70A985C
:105E1800089BDDF824C0BFF35F8FC0B2D3E84F1FE3
:105E2800014503D1C3E842CF002AF7D1C0B2081A0E
:105E3800B0FA80F04009BFF35F8F07F8921C07F8AB
:105E4800910CA1E70A98089BDDF824C0C0B2D3E8FA
:105E58004F1F014503D1C3E842CF002AF7D1C0B292
:105E6800081AB0FA80F04009BFF35F8F07F8921C58
:105E780007F8910C88E70A98089BDDF824C0C0B29F
:105E8800D3E84F1F014503D1C3E842CF002AF7D119
:105E9800C0B2081AB0FA80F04009BFF35F8F07F864
:105EA800921C07F8910C6FE70A98089BDDF824C04C
:105EB800BFF35F8FC0B2D3E84F1F014503D1C3E8DA
:105EC80042CF002AF7D1C0B2081AB0FA80F04009D0
:105ED800BFF35F8F07F8921C07F8910C54E70A98F4
:105EE800089BDDF824C0BFF35F8FC0B2D3E84F1F13
:105EF800014503D1C3E842CF002AF7D1C0B2081A3E
:105F0800B0FA80F04009BFF35F8F07F8921C07F8DA
:105F1800910C39E70A98089BDDF824C0BFF35F8F1E
:105F2800C0B2D3E84F1F014503D1C3E842CF002ACE
:105F3800F7D1C0B2081AB0FA80F04009BFF35F8FFA
:105F480007F8921C07F8910C1EE70A98089BDDF8E1
:105F580024C0BFF35F8FC0B2D3E84F1F014503D100
:105F6800C3E842CF002AF7D1C0B2081AB0FA80F0CD
:105F78004009BFF35F8F07F8921C07F8910C03E7FD
:105F88000A98089BDDF824C0BFF35F8FC0B2D3E83E
:105F98004F1F014503D1C3E842CF002AF7D1C0B251
:105FA800081AB0FA80F04009BFF35F8F07F8921C17
:105FB80007F8910CE8E60A98089BDDF824C0BFF3BF
:105FC8005F8FC0B2D3E84F1F014503D1C3E842CF6A
:105FD800002AF7D1C0B2081AB0FA80F04009BFF31E
:105FE8005F8F07F8921C07F8910CCDE60A98089B7A
:105FF800DDF824C0BFF35F8FC0B2D3E84F1F01455F
:1060080003D1C3E842CF002AF7D1C0B2081AB0FAC8
:1060180080F04009BFF35F8F07F8921C07F8910CD6
:10602800B2E602988DF8350001208DF8340006E0BC
:1060380002988DF8350000208DF83400FFE79DF8B0
:1060480034009DF8351030B0D0BD4AF24000C2F29D
:1060580022002C9001202D90002030BB0AE04AF24B
:106068009800C2F222002E9001202F9000200028D4
:1060780047D12BE0002020904AF24001C2F22201D1
:10608800149101211591209A21991892199149F694
:106098006061C2F22201169117904AF24801C2F2D9
:1060A800220114A817F039F8FEDE49F6CC61C2F2D5
:1060B80022011AA801900122FFF7B5F8019849F6C4
:1060C8002071C2F2220117F028F8FEDE0020289085
:1060D8004AF29801C2F222010E9101210F91289AE9
:1060E80029991292139149F66061C2F22201109126
:1060F80011904AF2A001C2F222010EA817F00DF881
:10610800FEDE49F6CC61C2F2220122A800900122EB
:10611800FFF789F8009849F62071C2F2220116F0BB
:10612800FCFFFEDE80B56F4684B00290039100F05C
:1061380060F807F8090C17F8090C022809D0FFE7DE
:1061480017F8090CFF38B0FA80F0400907F80A0C74
:1061580003E0002007F80A0CFFE717F80A0C04B060
:1061680080BD81B0014600910868496801B0704758
:1061780080B56F46482218F0A0FD80BD80B56F46F7
:10618800542218F09AFD80BD82B0019000680090FA
:10619800009802B0704780B56F4688B000910146FC
:1061A800009803910690FFF70AF9019008460099B4
:1061B80002908868049001F10C00002107F8091C7E
:1061C80017F8091CFEF7BAFEFEF7A9FE019B029A12
:1061D80003998446049807F801CC17F801CC07F80E
:1061E8000ACC0B604A60886017F80A0C087308B07C
:1061F80080BD80B56F4682B00090019108300831AB
:10620800FCF7F3F902B080BD81B00090006801B0DE
:10621800704780B56F4684B002900430042107F8B7
:10622800091C17F8092C0121FEF796FEFCF748FC1B
:1062380004B080BD83B0009101460098019002929D
:1062480008648A61002081F8450003B0704780B572
:106258006F46AEB00B910D9025910D9890F84500C2
:1062680001460C9130B1FFE70C98012818D0FFE7E0
:106278001AE0FEDE0B9824900D98002180F8441057
:106288000D98006C0A9027900D9B9A69DA6104308A
:1062980007F87D1C17F87D1CFEF750FEC0B906E014
:1062A80000200028FCD172E00B98249061E04AF2AB
:1062B8000411C2F222010FA809900122FEF7B3FFD0
:1062C80009984AF26811C2F2220116F026FFFEDE92
:1062D8000D990020049008620D9901F1200048638F
:1062E8000D9803903430FFF74FFF039B0A9902463D
:1062F80004989A6328910D990591FEF739FE059A3D
:106308000A9929902998D0630D983C3007902A90D3
:10631800159116900D98069015981699FEF7B2FFEC
:10632800069B024607988C460A99C3F814C01A615E
:106338000D9B012283F844200D9A02F11C03383288
:106348001F932092219122901BA808901FA901F069
:106358009AFE089917A801F0A6FE0D991798189AA1
:10636800199BDDF868C0C1F80CC08B604A600860F2
:10637800FFE70D982D902C902C98249901F0A3FEFE
:1063880007F82A0C17F82A0CC00760B114E04AF283
:106398009010C2F222004AF27812C2F2220223219D
:1063A80016F0E9FEFEDE0D983430FFF72DFF0146AA
:1063B8000291006858B916E0012007F87E0C0D9983
:1063C800032081F8450017F87E0C2EB080BD029896
:1063D8002B900C30002107F8291C17F8291CFEF710
:1063E800ADFD58B909E00D99002081F844000D99D8
:1063F80008694969FCF755FB0AE009E00D99002096
:1064080081F844000D9908694969FEF74EFFFFE7D6
:106418000D9890F84400C007A0B9FFE70D99002037
:10642800019081F844000D98203001F0E7F90198B7
:1064380007F87E0C0D99012081F8450017F87E0CAD
:106448002EB080BD0D98103001F0E6F9E6E780B572
:106458006F469EB0079108901590169102F086FE3F
:10646800014608980A9101680AA8FCF73BF858B950
:10647800FFE708984068FFF7C7FE014606911790A6
:10648800FEF742FF40B903E0002007F8510C4DE049
:10649800012007F8510C49E00798FEF782FFFEF744
:1064A8008EFF0246089800920191006800680290E9
:1064B80000200490FEF733FD009A019903460298E4
:1064C80007F8153C17F8153C07F8263C109211916F
:1064D800129017F8260C8DF84C000BA8039010A901
:1064E800FCF700FB06980399FEF7E8FE01460898BA
:1064F800199180681D911C911C99FCF7A4FB049AC2
:106508000346089803F00103059307F80D3C1B9117
:10651800C06807F8252C17F8252CFEF73BFD0598D1
:106528000028B5D0FFE702F04CFEB1E717F8510C90
:106538001EB080BD80B56F4684B00190029101986D
:1065480000900298002107F8011C17F8011CFEF7BB
:1065580017FD01460098FCF7EAFA04B080BD80B543
:106568006F469AB00290189002F02AFE02F02EFEB2
:10657800FFE702990020039003A80990099A05A84B
:10658800FCF71FFC05980699079A089B139312922B
:106598001191109003990498109A119BDDF848C046
:1065A800DDF84CE0CDF834E0CDF830C00B930A921A
:1065B8000E910F900A9818B9FFE70E9868B10FE08E
:1065C8000A980B990C9A0D9B179316921591149093
:1065D80014981599FEF7C9FECBE702F011FE0DE0FD
:1065E8000F980190199002F00AFE019802F0E4FD5C
:1065F800019800F0EBFF0028BBD1FFE71AB080BD7F
:1066080080B56F4688B00091029006918868049022
:1066180001200390029A039B0498136050608868D5
:1066280000F0D4FF01460098019107F8011C0C30D6
:10663800002207F8092C17F8092CFEF78DFC0198A1
:1066480008B080BD83B00091014600980190029285
:1066580008604A60002081F8500003B0704780B598
:106668006F46B6B0059107902F91079890F85000A3
:106678000146069130B1FFE70698012824D0FFE7CC
:1066880026E0FEDE05982E9007980068029031906B
:10669800079840680190329002F068FD01993390A4
:1066A800FBF7FEFE029902461BA80390FFF7C2FD06
:1066B800039909A80490FFF75BFD0499079808302F
:1066C800482218F0FAFA06E000200028FCD111E070
:1066D80005982E90FFE70798083035903490349845
:1066E8002E99FFF7B4FD07F8210C17F8210CC00705
:1066F80060B11AE04AF29010C2F222004AF2B412D3
:10670800C2F22202232116F036FDFEDE0798083079
:1067180001F054F8002007F8B50C0799012081F81A
:10672800500017F8B50C36B080BD012007F8B50C3D
:106738000799032081F8500017F8B50C36B080BDD2
:1067480080B56F46FEF799FB80BD80B56F4694B063
:10675800039007F8351C099002F061F80146039888
:106768004831049102F05BF848300B90129016F013
:10677800EAFA20F02000059017F8350C18B9FFE761
:106788000020079002E001200790FFE70498059990
:10679800079A02F0010241EA42110E900F911090FF
:1067A80016F0E6FA039802F03AF8014603984431E5
:1067B800009102F034F844300A90139016F0C3FAAE
:1067C80020F44040019017F8350C01460291022848
:1067D8000BD0FFE7029803280AD0FFE702980428A5
:1067E80009D0FFE70020089008E00120089005E0A4
:1067F8000220089002E003200890FFE70098019922
:10680800089A920392B211430C900D91119016F0D0
:10681800AFFA14B080BD80B56F4694B0039007F806
:10682800351C099001F0B3FF0146039848310491E3
:1068380001F0ADFF48300B90129016F084FA20F06A
:106848002000059017F8350C18B9FFE700200790CD
:1068580002E001200790FFE704980599079A02F0E3
:10686800010241EA42110E900F91109016F080FA41
:10687800039801F08CFF014603984431009101F020
:1068880086FF44300A90139016F05DFA20F44040D9
:10689800019017F8350C0146029102280BD0FFE74A
:1068A800029803280AD0FFE70298042809D0FFE7D6
:1068B8000020089008E00120089005E002200890D8
:1068C80002E003200890FFE700980199089A9203D4
:1068D80092B211430C900D91119016F049FA14B030
:1068E80080BD80B56F468CB0009007F81D1C0690DF
:1068F80001F04DFF014600984431019101F047FF36
:10690800443007900B9016F01EFA20F00C0002900D
:1069180017F81D0C0146039130B1FFE703980128D1
:1069280005D0FFE706E0FEDE0020059005E0012027
:10693800059002E002200590FFE701980299059A68
:1069480002F0030241EA8201089009910A9016F0C8
:106958000FFA0CB080BD80B56F468CB0009007F878
:106968001D1C069001F05BFF01460098443101911F
:1069780001F055FF443007900B9016F0E4F920F031
:106988000C00029017F81D0C0146039130B1FFE787
:106998000398012805D0FFE706E0FEDE00200590F9
:1069A80005E00120059002E002200590FFE701982C
:1069B8000299059A02F0030241EA820108900991BE
:1069C8000A9016F0D5F90CB080BD80B56F468CB032
:1069D80002910090059007F8151C01F020FF014670
:1069E80000984431019101F01AFF443007900B9050
:1069F80016F0A9F9029920F08000039019B9FFE771
:106A08000020049002E001200490FFE70198039918
:106A1800049AD201D2B21143089009910A9016F053
:106A2800A7F90CB080BD80B56F468CB0029100907C
:106A3800059007F8151C01F0AAFE0146009844319C
:106A4800019101F0A4FE443007900B9016F07BF9F9
:106A5800029920F08000039019B9FFE70020049004
:106A680002E001200490FFE701980399049AD201FB
:106A7800D2B21143089009910A9016F079F90CB036
:106A880080BDD4D480B56F4690B0039007F8211C20
:106A98000A9001F07CFE014603984431049101F00C
:106AA80076FE44300B900F9016F04DF920F44470A8
:106AB800059017F8210C06900699DFE801F0030607
:106AC800090CFEDE0320089008E00120089005E08C
:106AD8000320089002E000200890FFE70598089935
:106AE80001F0030140EA0120019017F8210C0290FF
:106AF8000299DFE801F00205080B0120099008E07F
:106B08000120099005E00020099002E0002009908A
:106B1800FFE704980199099A02F0010241EA02117B
:106B28000C900D910E9016F023F910B080BDD4D4BE
:106B380080B56F4690B0039007F8211C0A9001F0C9
:106B48006EFE014603984431049101F068FE44301A
:106B58000B900F9016F0F7F820F44470059017F892
:106B6800210C06900699DFE801F00306090CFEDE09
:106B78000320089008E00120089005E00320089011
:106B880002E000200890FFE70598089901F003014A
:106B980040EA0120019017F8210C02900299DFE8E1
:106BA80001F00205080B0120099008E00120099076
:106BB80005E00020099002E000200990FFE7049812
:106BC8000199099A02F0010241EA02110C900D9113
:106BD8000E9016F0CDF810B080BDD4D480B56F46B5
:106BE8009EB00C9007F8421C07F8412C0CA809909D
:106BF80001F015FE0146099848310A9101F00FFE8F
:106C0800483015901C9016F09EF820F001000B906B
:106C180017F8420C022803D1FFE701200E9002E08A
:106C280000200E90FFE70A980B990E9A02F00102D5
:106C38001143189019911A9016F09AF80CA805901B
:106C480001F0EDFD014605984431069101F0E7FD9C
:106C5800443014901D9016F076F840F26341884352
:106C6800079017F8420C0146089130B1FFE70898E1
:106C7800012805D0FFE706E0FEDE00200F9005E0C2
:106C880001200F9002E003200F90FFE707980F996B
:106C980001F003010843039017F8410C049004998C
:106CA800DFE801F00205080B0020109008E0012041
:106CB800109005E00220109002E003201090FFE7FA
:106CC80006980399109A02F0030241EA421141F42E
:106CD8008061169017911B9016F04AF80C98119045
:106CE8000120019007F82D0C17F82D1C11A802900F
:106CF800FFF731FE029800210091FFF766FE029827
:106D080004218DF84C109DF84C10FFF71EFD0099DA
:106D1800029807F82B1C17F82B1CFFF709FF02989D
:106D280000F0CBF80199029807F82A1C17F82A1CDA
:106D3800FFF70BFD0199029807F8291C17F8291C81
:106D4800FFF7F6FE11981EB080BDD4D480B56F460B
:106D58009EB00C9007F8421C07F8412C0CA809902B
:106D680001F015FD0146099848310A9101F00FFD1F
:106D7800483015901C9015F0E6FF20F001000B90AC
:106D880017F8420C022803D1FFE701200E9002E019
:106D980000200E90FFE70A980B990E9A02F0010264
:106DA8001143189019911A9015F0E2FF0CA805905C
:106DB80001F0EDFC014605984431069101F0E7FC2D
:106DC800443014901D9015F0BEFF40F26341884393
:106DD800079017F8420C0146089130B1FFE7089870
:106DE800012805D0FFE706E0FEDE00200F9005E051
:106DF80001200F9002E003200F90FFE707980F99FA
:106E080001F003010843039017F8410C049004991A
:106E1800DFE801F00205080B0020109008E00120CF
:106E2800109005E00220109002E003201090FFE788
:106E380006980399109A02F0030241EA421141F4BC
:106E48008061169017911B9015F092FF0C98119085
:106E58000120019007F82D0C17F82D1C11A802909D
:106E6800FFF73FFD029800210091FFF7DCFD029833
:106E780004218DF84C109DF84C10FFF7CCFC0099BC
:106E8800029807F82B1C17F82B1CFFF7FBFD02983C
:106E980000F03EF80199029807F82A1C17F82A1CF6
:106EA800FFF7B9FC0199029807F8291C17F8291C63
:106EB800FFF7E8FD11981EB080BD80B56F468CB015
:106EC8000190039001F0ABFC014601984831029112
:106ED80001F0A5FC483006900A9015F034FF0146F1
:106EE800029841F0800107900891099015F040FF41
:106EF800FFE7019801F093FC583005900B9015F0CE
:106F080022FF049000070028F3D1FFE70CB080BDF2
:106F180080B56F468CB00190039001F038FC0146B3
:106F280001984831029101F032FC483006900A90ED
:106F380015F009FF0146029841F080010790089179
:106F4800099015F015FFFFE7019801F020FC583073
:106F580005900B9015F0F7FE049000070028F3D178
:106F6800FFE70CB080BD82B08DF800008DF80110ED
:106F78009DF800109DF801008DF804108DF80500AB
:106F88008DF806108DF807008DF802108DF80300B3
:106F98009DF802009DF8031002B0704782B000917E
:106FA800014600988DF805009DF805008DF806004B
:106FB8008DF8070008710020086002B0704783B0A0
:106FC8000091014600988DF806008DF807209DF87D
:106FD80006209DF807008DF808208DF809008DF827
:106FE8000A208DF80B000A7148710220086003B06E
:106FF800704782B08DF800008DF801109DF80010E0
:107008009DF801008DF804108DF805008DF8061024
:107018008DF807008DF802108DF80300BDF8020006
:1070280002B0704781B08DF800009DF800008DF81F
:1070380002008DF803008DF801009DF8010001B0F1
:10704800704781B0009001780120884301B07047F3
:1070580080B56F4684B0029107F8030C17F8030C4B
:10706800C00710B9FFE704B080BD02986946086000
:107078004AF2C410C2F222004AF2F013C2F222030A
:107088002B21BA1E16F0E3F8FEDE80B56F4682B0FB
:1070980001208DF80400002020B9FFE7062007F83A
:1070A800060C09E000208DF8040000F02EFB07F81C
:1070B800060C07F8051CFFE79DF80400C00730B967
:1070C800FFE717F8060C17F8051C02B080BDF8E7B3
:1070D80080B56F4682B001208DF80400002020B9E9
:1070E800FFE7062007F8060C09E000208DF80400E9
:1070F80000F01DFB07F8060C07F8051CFFE79DF8D4
:107108000400C00730B9FFE717F8060C17F8051C8C
:1071180002B080BDF8E780B56F4688B00291039051
:10712800012007F80E0C086848B1FFE70399029898
:1071380002684068059206900A60486015E0029867
:10714800007907F8010C0021019107F80E1C07F8D7
:107158000F0C17F80F0C00F0DFFA034601980A46E7
:1071680003990B714A710860FFE717F80E0CC00706
:1071780010B9FFE708B080BDFCE780B56F4682B064
:1071880001208DF80400002020B9FFE7062007F849
:10719800060C09E000208DF80400FDF721FD07F832
:1071A800060C07F8051CFFE79DF80400C00730B976
:1071B800FFE717F8060C17F8051C02B080BDF8E7C2
:1071C80080B56F4682B08DF8000001208DF804006C
:1071D8009DF80000062804D1FFE7062007F8070CF1
:1071E80011E09DF8000007F8010C00218DF804104B
:1071F80007F8050C17F8050C00F08EFA07F8070CCD
:1072080007F8061CFFE79DF80400C00730B9FFE740
:1072180017F8070C17F8061C02B080BDF8E783B012
:10722800134600938DF806008DF807108DF80A2094
:1072380001208DF809009DF80600C00738B9FFE75E
:107248009DF807008DF80B008DF8080006E00098FF
:1072580000218DF809108DF80800FFE79DF8090056
:10726800C00728B9FFE79DF80600C00708B104E089
:10727800F9E79DF8080003B07047FAE782B08DF887
:1072880003009DF80300062804D1FFE706208DF8C7
:1072980004000AE09DF803008DF807008DF805004A
:1072A8009DF805008DF80400FFE79DF8040002B082
:1072B800704786B000910190086802280FD0FFE758
:1072C8000199009B18685A689B680493039202907E
:1072D8000298039A049B8B604A6008600CE001994D
:1072E800009800798DF817008DF816009DF81600A3
:1072F800087102200860FFE706B0704786B0009169
:107308000190086848B1FFE7019900980268406851
:10731800039204900A60486014E001990098027989
:1073280040798DF816208DF817008DF80A208DF811
:107338000B009DF80A209DF80B000A714871002087
:107348000860FFE706B0704783B08DF803008DF83A
:1073580004109DF80300062804D1FFE706208DF8E5
:10736800050014E09DF803109DF804008DF80A103C
:107378008DF80B008DF807108DF808009DF80710A0
:107388009DF808008DF805108DF80600FFE79DF8B8
:1073980005009DF8061003B0704780B56F4682B0AF
:1073A80007F8010C04F004FA02B080BD48F2081096
:1073B800C4F21F00704748F26810C4F21F007047FB
:1073C80048F24410C4F21F00704748F23C10C4F25F
:1073D8001F00704748F21810C4F21F00704748F2A7
:1073E8000410C4F21F00704748F24010C4F21F0096
:1073F800704748F26410C4F21F00704748F2083022
:10740800C4F21F00704780B56F46B8B0039105906D
:107418003391059890F858000146049130B1FFE780
:10742800049801281BD0FFE71DE0FEDE0398329088
:1074380005980268359245F2EC01C2F200011CA8D9
:107448000190FFF7FFF8019907A80290FEF796FE52
:10745800029905980430542217F02FFC06E000200A
:107468000028FCD111E003983290FFE7059804301A
:107478003790369036983299FFF7F1F807F8190CDB
:1074880017F8190CC00760B11AE04AF28020C2F25E
:1074980022004AF26422C2F22202232115F06BFE76
:1074A800FEDE0598043000F068F9002007F8C50CE6
:1074B8000599012081F8580017F8C50C38B080BD2F
:1074C800012007F8C50C0599032081F8580017F822
:1074D800C50C38B080BD80B56F4688B001460591AF
:1074E80001F5FA7002460392884211D3FFE7039828
:1074F80044F6D351C1F26201A0FB01014FF0FF3005
:1075080000EB911002900020B0EB911F12D00BE01D
:107518004AF2C020C2F222004AF2A422C2F2220297
:107528001C2115F028FEFEDE02980790B0F1807F3E
:1075380018D30BE04AF2E020C2F222004AF2A42259
:10754800C2F22202212115F016FEFEDE4AF20130B7
:10755800C2F222004AF22832C2F22202272115F092
:107568000AFEFEDE029860B9FFE74AF23830C2F23E
:1075780022004AF25432C2F222021C2115F0FBFD0D
:10758800FEDEA7F10E000190FDF701FC0198002135
:1075980007F80D1C17F80D1CFDF731FC029901982E
:1075A800FDF7C6FB0198FDF70EFC0198FDF7D3FB2C
:1075B80045F2EC00C2F20000FEF72BFE08B080BDD9
:1075C80080B56F465C2217F078FB80BD80B56F46AA
:1075D80082B0009001F0CAFD019001A86946FAF74F
:1075E80081FF02B080BD80B56F4684B0029001F083
:1075F800EEF803900190019804B080BD80B56F4605
:1076080084B0029001F0E3F803900190019804B06F
:1076180080BD80B56F4684B0029001F0D8F8039021
:107628000190019804B080BD80B56F4684B0029087
:1076380001F0CDF803900190019804B080BD80B5A9
:107648006F469AB00790089108A8039001F0BFF818
:1076580001460398019101F0BAF80990199015F0C4
:1076680072FB0146019821F00201129013911490C7
:1076780015F07EFB039801F0AAF800F584701090CD
:10768800002102911191159015F072FB039801F0F9
:107698009EF8029900F58C700E900F91169015F0D7
:1076A80067FB039801F093F8029900F594700C9029
:1076B8000D91179015F05CFB039801F088F802997A
:1076C80000F59C700A900B91189015F051FB0398E7
:1076D800FFF79FFF014603980491FFF78FFF0146CC
:1076E80003980591FFF7A0FF014603980691FFF75D
:1076F8007AFFDDF810C0059B069A0799C1F800C00B
:107708004B608A60C8601AB080BD80B56F4682B091
:1077180000F0DAFB02B080BD80B56F4682B007F892
